{
  "_format": "hh-sol-artifact-1",
  "contractName": "Crowdr",
  "sourceName": "contracts/Crowdr.sol",
  "abi": [
    {
      "inputs": [
        {
          "internalType": "uint256",
          "name": "",
          "type": "uint256"
        }
      ],
      "name": "campaigns",
      "outputs": [
        {
          "internalType": "string",
          "name": "title",
          "type": "string"
        },
        {
          "internalType": "string",
          "name": "description",
          "type": "string"
        },
        {
          "internalType": "address",
          "name": "creator",
          "type": "address"
        },
        {
          "internalType": "uint256",
          "name": "goal",
          "type": "uint256"
        },
        {
          "internalType": "uint256",
          "name": "endTime",
          "type": "uint256"
        },
        {
          "internalType": "uint256",
          "name": "totalFunds",
          "type": "uint256"
        },
        {
          "internalType": "enum Crowdr.Category",
          "name": "category",
          "type": "uint8"
        },
        {
          "internalType": "bool",
          "name": "isOpen",
          "type": "bool"
        },
        {
          "internalType": "enum Crowdr.RefundPolicy",
          "name": "refundPolicy",
          "type": "uint8"
        },
        {
          "internalType": "bool",
          "name": "claimedAmount",
          "type": "bool"
        },
        {
          "internalType": "string",
          "name": "image",
          "type": "string"
        }
      ],
      "stateMutability": "view",
      "type": "function"
    },
    {
      "inputs": [
        {
          "internalType": "bytes",
          "name": "",
          "type": "bytes"
        }
      ],
      "name": "checkUpkeep",
      "outputs": [
        {
          "internalType": "bool",
          "name": "upkeepNeeded",
          "type": "bool"
        },
        {
          "internalType": "bytes",
          "name": "",
          "type": "bytes"
        }
      ],
      "stateMutability": "view",
      "type": "function"
    },
    {
      "inputs": [
        {
          "internalType": "uint256",
          "name": "_index",
          "type": "uint256"
        }
      ],
      "name": "claimFund",
      "outputs": [],
      "stateMutability": "nonpayable",
      "type": "function"
    },
    {
      "inputs": [
        {
          "internalType": "uint256",
          "name": "_index",
          "type": "uint256"
        }
      ],
      "name": "claimRefund",
      "outputs": [],
      "stateMutability": "nonpayable",
      "type": "function"
    },
    {
      "inputs": [
        {
          "internalType": "uint256",
          "name": "_campaignIndex",
          "type": "uint256"
        }
      ],
      "name": "closeCampaign",
      "outputs": [],
      "stateMutability": "nonpayable",
      "type": "function"
    },
    {
      "inputs": [
        {
          "internalType": "uint256",
          "name": "_campaignIndex",
          "type": "uint256"
        }
      ],
      "name": "contribute",
      "outputs": [],
      "stateMutability": "payable",
      "type": "function"
    },
    {
      "inputs": [
        {
          "internalType": "uint256",
          "name": "",
          "type": "uint256"
        },
        {
          "internalType": "address",
          "name": "",
          "type": "address"
        }
      ],
      "name": "contributions",
      "outputs": [
        {
          "internalType": "uint256",
          "name": "",
          "type": "uint256"
        }
      ],
      "stateMutability": "view",
      "type": "function"
    },
    {
      "inputs": [
        {
          "internalType": "uint256",
          "name": "",
          "type": "uint256"
        },
        {
          "internalType": "address",
          "name": "",
          "type": "address"
        }
      ],
      "name": "contributors",
      "outputs": [
        {
          "internalType": "bool",
          "name": "",
          "type": "bool"
        }
      ],
      "stateMutability": "view",
      "type": "function"
    },
    {
      "inputs": [
        {
          "internalType": "string",
          "name": "_title",
          "type": "string"
        },
        {
          "internalType": "string",
          "name": "_description",
          "type": "string"
        },
        {
          "internalType": "uint256",
          "name": "_goal",
          "type": "uint256"
        },
        {
          "internalType": "uint256",
          "name": "_duration",
          "type": "uint256"
        },
        {
          "internalType": "enum Crowdr.Category",
          "name": "_category",
          "type": "uint8"
        },
        {
          "internalType": "enum Crowdr.RefundPolicy",
          "name": "_refundPolicy",
          "type": "uint8"
        },
        {
          "internalType": "string",
          "name": "_image",
          "type": "string"
        }
      ],
      "name": "createCampaign",
      "outputs": [],
      "stateMutability": "nonpayable",
      "type": "function"
    },
    {
      "inputs": [],
      "name": "getAllCategories",
      "outputs": [
        {
          "internalType": "string[]",
          "name": "",
          "type": "string[]"
        }
      ],
      "stateMutability": "pure",
      "type": "function"
    },
    {
      "inputs": [
        {
          "internalType": "uint256",
          "name": "_campaignIndex",
          "type": "uint256"
        }
      ],
      "name": "getCampaignDetails",
      "outputs": [
        {
          "internalType": "string",
          "name": "title",
          "type": "string"
        },
        {
          "internalType": "string",
          "name": "description",
          "type": "string"
        },
        {
          "internalType": "address",
          "name": "creator",
          "type": "address"
        },
        {
          "internalType": "uint256",
          "name": "goal",
          "type": "uint256"
        },
        {
          "internalType": "uint256",
          "name": "endTime",
          "type": "uint256"
        },
        {
          "internalType": "uint256",
          "name": "totalFunds",
          "type": "uint256"
        },
        {
          "internalType": "enum Crowdr.Category",
          "name": "category",
          "type": "uint8"
        },
        {
          "internalType": "bool",
          "name": "isOpen",
          "type": "bool"
        }
      ],
      "stateMutability": "view",
      "type": "function"
    },
    {
      "inputs": [],
      "name": "getCampaignsLength",
      "outputs": [
        {
          "internalType": "uint256",
          "name": "",
          "type": "uint256"
        }
      ],
      "stateMutability": "view",
      "type": "function"
    },
    {
      "inputs": [
        {
          "internalType": "address",
          "name": "creator",
          "type": "address"
        }
      ],
      "name": "getCreatorCampaigns",
      "outputs": [
        {
          "internalType": "uint256[]",
          "name": "createdCampaigns",
          "type": "uint256[]"
        }
      ],
      "stateMutability": "view",
      "type": "function"
    },
    {
      "inputs": [
        {
          "internalType": "bytes",
          "name": "",
          "type": "bytes"
        }
      ],
      "name": "performUpkeep",
      "outputs": [],
      "stateMutability": "nonpayable",
      "type": "function"
    }
  ],
  "bytecode": "0x608060405234801561001057600080fd5b50613125806100206000396000f3fe6080604052600436106100dd5760003560e01c806376edca3d1161007f578063d993de6211610059578063d993de62146102ca578063dadd0a571461030e578063e7c3602314610339578063fb5474ae14610376576100dd565b806376edca3d14610248578063b0e1c1e114610285578063c1cbbca7146102ae576100dd565b80633d891f59116100bb5780633d891f591461017b5780634585e33b146101b85780635b7baf64146101e15780636e04ff0d1461020a576100dd565b80630e71bd1d146100e2578063141961bc1461010b57806331c7364f14610152575b600080fd5b3480156100ee57600080fd5b5061010960048036038101906101049190611e82565b6103a1565b005b34801561011757600080fd5b50610132600480360381019061012d9190611f78565b610679565b6040516101499b9a9998979695949392919061214e565b60405180910390f35b34801561015e57600080fd5b5061017960048036038101906101749190611f78565b6108cf565b005b34801561018757600080fd5b506101a2600480360381019061019d919061223a565b610c3f565b6040516101af919061227a565b60405180910390f35b3480156101c457600080fd5b506101df60048036038101906101da91906122f5565b610c64565b005b3480156101ed57600080fd5b5061020860048036038101906102039190611f78565b610da5565b005b34801561021657600080fd5b50610231600480360381019061022c91906122f5565b61106d565b60405161023f929190612397565b60405180910390f35b34801561025457600080fd5b5061026f600480360381019061026a91906123c7565b6111ab565b60405161027c91906124b2565b60405180910390f35b34801561029157600080fd5b506102ac60048036038101906102a79190611f78565b611242565b005b6102c860048036038101906102c39190611f78565b6113e7565b005b3480156102d657600080fd5b506102f160048036038101906102ec9190611f78565b6116af565b6040516103059897969594939291906124d4565b60405180910390f35b34801561031a57600080fd5b506103236118bc565b604051610330919061266c565b60405180910390f35b34801561034557600080fd5b50610360600480360381019061035b919061223a565b611c6c565b60405161036d919061268e565b60405180910390f35b34801561038257600080fd5b5061038b611c9b565b604051610398919061227a565b60405180910390f35b600085116103e4576040517f08c379a00000000000000000000000000000000000000000000000000000000081526004016103db906126f5565b60405180910390fd5b60006040518061016001604052808981526020018881526020013373ffffffffffffffffffffffffffffffffffffffff168152602001878152602001864261042c9190612744565b81526020016000815260200185600781111561044b5761044a612074565b5b815260200160011515815260200184600181111561046c5761046b612074565b5b8152602001600015158152602001838152509050600381908060018154018082558091505060019003906000526020600020906008020160009091909190915060008201518160000190816104c19190612984565b5060208201518160010190816104d79190612984565b5060408201518160020160006101000a81548173ffffffffffffffffffffffffffffffffffffffff021916908373ffffffffffffffffffffffffffffffffffffffff160217905550606082015181600301556080820151816004015560a0820151816005015560c08201518160060160006101000a81548160ff0219169083600781111561056857610567612074565b5b021790555060e08201518160060160016101000a81548160ff0219169083151502179055506101008201518160060160026101000a81548160ff021916908360018111156105b9576105b8612074565b5b02179055506101208201518160060160036101000a81548160ff0219169083151502179055506101408201518160070190816105f59190612984565b505050600260003373ffffffffffffffffffffffffffffffffffffffff1673ffffffffffffffffffffffffffffffffffffffff16815260200190815260200160002060016003805490506106499190612a56565b90806001815401808255809150506001900390600052602060002001600090919091909150555050505050505050565b6003818154811061068957600080fd5b90600052602060002090600802016000915090508060000180546106ac906127a7565b80601f01602080910402602001604051908101604052809291908181526020018280546106d8906127a7565b80156107255780601f106106fa57610100808354040283529160200191610725565b820191906000526020600020905b81548152906001019060200180831161070857829003601f168201915b50505050509080600101805461073a906127a7565b80601f0160208091040260200160405190810160405280929190818152602001828054610766906127a7565b80156107b35780601f10610788576101008083540402835291602001916107b3565b820191906000526020600020905b81548152906001019060200180831161079657829003601f168201915b5050505050908060020160009054906101000a900473ffffffffffffffffffffffffffffffffffffffff16908060030154908060040154908060050154908060060160009054906101000a900460ff16908060060160019054906101000a900460ff16908060060160029054906101000a900460ff16908060060160039054906101000a900460ff169080600701805461084c906127a7565b80601f0160208091040260200160405190810160405280929190818152602001828054610878906127a7565b80156108c55780601f1061089a576101008083540402835291602001916108c5565b820191906000526020600020905b8154815290600101906020018083116108a857829003601f168201915b505050505090508b565b806003805490508110610917576040517f08c379a000000000000000000000000000000000000000000000000000000000815260040161090e90612ad6565b60405180910390fd5b3373ffffffffffffffffffffffffffffffffffffffff166003838154811061094257610941612af6565b5b906000526020600020906008020160020160009054906101000a900473ffffffffffffffffffffffffffffffffffffffff1673ffffffffffffffffffffffffffffffffffffffff16146109ca576040517f08c379a00000000000000000000000000000000000000000000000000000000081526004016109c190612b71565b60405180910390fd5b42600383815481106109df576109de612af6565b5b90600052602060002090600802016004015410610a31576040517f08c379a0000000000000000000000000000000000000000000000000000000008152600401610a2890612c03565b60405180910390fd5b600180811115610a4457610a43612074565b5b60038381548110610a5857610a57612af6565b5b906000526020600020906008020160060160029054906101000a900460ff166001811115610a8957610a88612074565b5b1480610adf575060038281548110610aa457610aa3612af6565b5b90600052602060002090600802016003015460038381548110610aca57610ac9612af6565b5b90600052602060002090600802016005015410155b610b1e576040517f08c379a0000000000000000000000000000000000000000000000000000000008152600401610b1590612c6f565b60405180910390fd5b60038281548110610b3257610b31612af6565b5b906000526020600020906008020160060160039054906101000a900460ff1615610b91576040517f08c379a0000000000000000000000000000000000000000000000000000000008152600401610b8890612cdb565b60405180910390fd5b600160038381548110610ba757610ba6612af6565b5b906000526020600020906008020160060160036101000a81548160ff0219169083151502179055503373ffffffffffffffffffffffffffffffffffffffff166108fc60038481548110610bfd57610bfc612af6565b5b9060005260206000209060080201600501549081150290604051600060405180830381858888f19350505050158015610c3a573d6000803e3d6000fd5b505050565b6000602052816000526040600020602052806000526040600020600091509150505481565b60005b600380549050811015610da0574260038281548110610c8957610c88612af6565b5b906000526020600020906008020160040154118015610cf2575060038181548110610cb757610cb6612af6565b5b90600052602060002090600802016003015460038281548110610cdd57610cdc612af6565b5b90600052602060002090600802016005015411155b15610d0157610d00816108cf565b5b4260038281548110610d1657610d15612af6565b5b906000526020600020906008020160040154118015610d7e575060038181548110610d4457610d43612af6565b5b90600052602060002090600802016003015460038281548110610d6a57610d69612af6565b5b906000526020600020906008020160050154105b15610d8d57610d8c81610da5565b5b8080610d9890612cfb565b915050610c67565b505050565b806003805490508110610ded576040517f08c379a0000000000000000000000000000000000000000000000000000000008152600401610de490612ad6565b60405180910390fd5b60006001811115610e0157610e00612074565b5b60038381548110610e1557610e14612af6565b5b906000526020600020906008020160060160029054906101000a900460ff166001811115610e4657610e45612074565b5b148015610e9c575060038281548110610e6257610e61612af6565b5b90600052602060002090600802016003015460038381548110610e8857610e87612af6565b5b906000526020600020906008020160050154105b610edb576040517f08c379a0000000000000000000000000000000000000000000000000000000008152600401610ed290612c6f565b60405180910390fd5b6001600083815260200190815260200160002060003373ffffffffffffffffffffffffffffffffffffffff1673ffffffffffffffffffffffffffffffffffffffff16815260200190815260200160002060009054906101000a900460ff16610f78576040517f08c379a0000000000000000000000000000000000000000000000000000000008152600401610f6f90612db5565b60405180910390fd5b600080600084815260200190815260200160002060003373ffffffffffffffffffffffffffffffffffffffff1673ffffffffffffffffffffffffffffffffffffffff168152602001908152602001600020549050600080600085815260200190815260200160002060003373ffffffffffffffffffffffffffffffffffffffff1673ffffffffffffffffffffffffffffffffffffffff168152602001908152602001600020819055503373ffffffffffffffffffffffffffffffffffffffff166108fc829081150290604051600060405180830381858888f19350505050158015611067573d6000803e3d6000fd5b50505050565b6000606060005b6003805490508110156111a357426003828154811061109657611095612af6565b5b9060005260206000209060080201600401541180156110ff5750600381815481106110c4576110c3612af6565b5b906000526020600020906008020160030154600382815481106110ea576110e9612af6565b5b90600052602060002090600802016005015411155b1561110957600192505b426003828154811061111e5761111d612af6565b5b90600052602060002090600802016004015411801561118657506003818154811061114c5761114b612af6565b5b9060005260206000209060080201600301546003828154811061117257611171612af6565b5b906000526020600020906008020160030154105b1561119057600192505b808061119b90612cfb565b915050611074565b509250929050565b6060600260008373ffffffffffffffffffffffffffffffffffffffff1673ffffffffffffffffffffffffffffffffffffffff16815260200190815260200160002080548060200260200160405190810160405280929190818152602001828054801561123657602002820191906000526020600020905b815481526020019060010190808311611222575b50505050509050919050565b6003805490508110611289576040517f08c379a000000000000000000000000000000000000000000000000000000000815260040161128090612e21565b60405180910390fd5b60006003828154811061129f5761129e612af6565b5b906000526020600020906008020190508060060160019054906101000a900460ff16611300576040517f08c379a00000000000000000000000000000000000000000000000000000000081526004016112f790612e8d565b60405180910390fd5b8060040154421015611347576040517f08c379a000000000000000000000000000000000000000000000000000000000815260040161133e90612ef9565b60405180910390fd5b80600301548160050154106113c6578060020160009054906101000a900473ffffffffffffffffffffffffffffffffffffffff1673ffffffffffffffffffffffffffffffffffffffff166108fc82600501549081150290604051600060405180830381858888f193505050501580156113c4573d6000803e3d6000fd5b505b60008160060160016101000a81548160ff0219169083151502179055505050565b80600380549050811061142f576040517f08c379a000000000000000000000000000000000000000000000000000000000815260040161142690612ad6565b60405180910390fd5b60006003838154811061144557611444612af6565b5b906000526020600020906008020190508060060160019054906101000a900460ff166114a6576040517f08c379a000000000000000000000000000000000000000000000000000000000815260040161149d90612f65565b60405180910390fd5b3373ffffffffffffffffffffffffffffffffffffffff168160020160009054906101000a900473ffffffffffffffffffffffffffffffffffffffff1673ffffffffffffffffffffffffffffffffffffffff1603611538576040517f08c379a000000000000000000000000000000000000000000000000000000000815260040161152f90612fd1565b60405180910390fd5b8060040154421061157e576040517f08c379a00000000000000000000000000000000000000000000000000000000081526004016115759061303d565b60405180910390fd5b600034116115c1576040517f08c379a00000000000000000000000000000000000000000000000000000000081526004016115b8906130cf565b60405180910390fd5b3460008085815260200190815260200160002060003373ffffffffffffffffffffffffffffffffffffffff1673ffffffffffffffffffffffffffffffffffffffff16815260200190815260200160002060008282546116209190612744565b92505081905550600180600085815260200190815260200160002060003373ffffffffffffffffffffffffffffffffffffffff1673ffffffffffffffffffffffffffffffffffffffff16815260200190815260200160002060006101000a81548160ff021916908315150217905550348160050160008282546116a39190612744565b92505081905550505050565b6060806000806000806000806003805490508910611702576040517f08c379a00000000000000000000000000000000000000000000000000000000081526004016116f990612e21565b60405180910390fd5b600060038a8154811061171857611717612af6565b5b9060005260206000209060080201905080600001816001018260020160009054906101000a900473ffffffffffffffffffffffffffffffffffffffff168360030154846004015485600501548660060160009054906101000a900460ff168760060160019054906101000a900460ff16878054611794906127a7565b80601f01602080910402602001604051908101604052809291908181526020018280546117c0906127a7565b801561180d5780601f106117e25761010080835404028352916020019161180d565b820191906000526020600020905b8154815290600101906020018083116117f057829003601f168201915b50505050509750868054611820906127a7565b80601f016020809104026020016040519081016040528092919081815260200182805461184c906127a7565b80156118995780601f1061186e57610100808354040283529160200191611899565b820191906000526020600020905b81548152906001019060200180831161187c57829003601f168201915b505050505096509850985098509850985098509850985050919395975091939597565b6060600060016007808111156118d5576118d4612074565b5b6118df9190612744565b67ffffffffffffffff8111156118f8576118f7611cd7565b5b60405190808252806020026020018201604052801561192b57816020015b60608152602001906001900390816119165790505b5090506040518060400160405280601181526020017f43524541544956455f50524f4a45435453000000000000000000000000000000815250816000600781111561197957611978612074565b5b8151811061198a57611989612af6565b5b60200260200101819052506040518060400160405280601981526020017f544543484e4f4c4f47595f414e445f494e4e4f564154494f4e0000000000000081525081600160078111156119e0576119df612074565b5b815181106119f1576119f0612af6565b5b60200260200101819052506040518060400160405280601481526020017f464f4f445f414e445f4147524943554c545552450000000000000000000000008152508160026007811115611a4757611a46612074565b5b81518110611a5857611a57612af6565b5b60200260200101819052506040518060400160405280600d81526020017f534f4349414c5f434155534553000000000000000000000000000000000000008152508160036007811115611aae57611aad612074565b5b81518110611abf57611abe612af6565b5b60200260200101819052506040518060400160405280600d81526020017f4556454e545f46554e44494e47000000000000000000000000000000000000008152508160046007811115611b1557611b14612074565b5b81518110611b2657611b25612af6565b5b60200260200101819052506040518060400160405280600481526020017f52454649000000000000000000000000000000000000000000000000000000008152508160056007811115611b7c57611b7b612074565b5b81518110611b8d57611b8c612af6565b5b60200260200101819052506040518060400160405280601081526020017f52454e455741424c455f454e45524759000000000000000000000000000000008152508160066007811115611be357611be2612074565b5b81518110611bf457611bf3612af6565b5b60200260200101819052506040518060400160405280600e81526020017f414e494d414c5f57454c4641524500000000000000000000000000000000000081525081600780811115611c4957611c48612074565b5b81518110611c5a57611c59612af6565b5b60200260200101819052508091505090565b60016020528160005260406000206020528060005260406000206000915091509054906101000a900460ff1681565b6000600380549050905090565b6000604051905090565b600080fd5b600080fd5b600080fd5b600080fd5b6000601f19601f8301169050919050565b7f4e487b7100000000000000000000000000000000000000000000000000000000600052604160045260246000fd5b611d0f82611cc6565b810181811067ffffffffffffffff82111715611d2e57611d2d611cd7565b5b80604052505050565b6000611d41611ca8565b9050611d4d8282611d06565b919050565b600067ffffffffffffffff821115611d6d57611d6c611cd7565b5b611d7682611cc6565b9050602081019050919050565b82818337600083830152505050565b6000611da5611da084611d52565b611d37565b905082815260208101848484011115611dc157611dc0611cc1565b5b611dcc848285611d83565b509392505050565b600082601f830112611de957611de8611cbc565b5b8135611df9848260208601611d92565b91505092915050565b6000819050919050565b611e1581611e02565b8114611e2057600080fd5b50565b600081359050611e3281611e0c565b92915050565b60088110611e4557600080fd5b50565b600081359050611e5781611e38565b92915050565b60028110611e6a57600080fd5b50565b600081359050611e7c81611e5d565b92915050565b600080600080600080600060e0888a031215611ea157611ea0611cb2565b5b600088013567ffffffffffffffff811115611ebf57611ebe611cb7565b5b611ecb8a828b01611dd4565b975050602088013567ffffffffffffffff811115611eec57611eeb611cb7565b5b611ef88a828b01611dd4565b9650506040611f098a828b01611e23565b9550506060611f1a8a828b01611e23565b9450506080611f2b8a828b01611e48565b93505060a0611f3c8a828b01611e6d565b92505060c088013567ffffffffffffffff811115611f5d57611f5c611cb7565b5b611f698a828b01611dd4565b91505092959891949750929550565b600060208284031215611f8e57611f8d611cb2565b5b6000611f9c84828501611e23565b91505092915050565b600081519050919050565b600082825260208201905092915050565b60005b83811015611fdf578082015181840152602081019050611fc4565b60008484015250505050565b6000611ff682611fa5565b6120008185611fb0565b9350612010818560208601611fc1565b61201981611cc6565b840191505092915050565b600073ffffffffffffffffffffffffffffffffffffffff82169050919050565b600061204f82612024565b9050919050565b61205f81612044565b82525050565b61206e81611e02565b82525050565b7f4e487b7100000000000000000000000000000000000000000000000000000000600052602160045260246000fd5b600881106120b4576120b3612074565b5b50565b60008190506120c5826120a3565b919050565b60006120d5826120b7565b9050919050565b6120e5816120ca565b82525050565b60008115159050919050565b612100816120eb565b82525050565b6002811061211757612116612074565b5b50565b600081905061212882612106565b919050565b60006121388261211a565b9050919050565b6121488161212d565b82525050565b6000610160820190508181036000830152612169818e611feb565b9050818103602083015261217d818d611feb565b905061218c604083018c612056565b612199606083018b612065565b6121a6608083018a612065565b6121b360a0830189612065565b6121c060c08301886120dc565b6121cd60e08301876120f7565b6121db61010083018661213f565b6121e96101208301856120f7565b8181036101408301526121fc8184611feb565b90509c9b505050505050505050505050565b61221781612044565b811461222257600080fd5b50565b6000813590506122348161220e565b92915050565b6000806040838503121561225157612250611cb2565b5b600061225f85828601611e23565b925050602061227085828601612225565b9150509250929050565b600060208201905061228f6000830184612065565b92915050565b600080fd5b600080fd5b60008083601f8401126122b5576122b4611cbc565b5b8235905067ffffffffffffffff8111156122d2576122d1612295565b5b6020830191508360018202830111156122ee576122ed61229a565b5b9250929050565b6000806020838503121561230c5761230b611cb2565b5b600083013567ffffffffffffffff81111561232a57612329611cb7565b5b6123368582860161229f565b92509250509250929050565b600081519050919050565b600082825260208201905092915050565b600061236982612342565b612373818561234d565b9350612383818560208601611fc1565b61238c81611cc6565b840191505092915050565b60006040820190506123ac60008301856120f7565b81810360208301526123be818461235e565b90509392505050565b6000602082840312156123dd576123dc611cb2565b5b60006123eb84828501612225565b91505092915050565b600081519050919050565b600082825260208201905092915050565b6000819050602082019050919050565b61242981611e02565b82525050565b600061243b8383612420565b60208301905092915050565b6000602082019050919050565b600061245f826123f4565b61246981856123ff565b935061247483612410565b8060005b838110156124a557815161248c888261242f565b975061249783612447565b925050600181019050612478565b5085935050505092915050565b600060208201905081810360008301526124cc8184612454565b905092915050565b60006101008201905081810360008301526124ef818b611feb565b90508181036020830152612503818a611feb565b90506125126040830189612056565b61251f6060830188612065565b61252c6080830187612065565b61253960a0830186612065565b61254660c08301856120dc565b61255360e08301846120f7565b9998505050505050505050565b600081519050919050565b600082825260208201905092915050565b6000819050602082019050919050565b600082825260208201905092915050565b60006125a882611fa5565b6125b2818561258c565b93506125c2818560208601611fc1565b6125cb81611cc6565b840191505092915050565b60006125e2838361259d565b905092915050565b6000602082019050919050565b600061260282612560565b61260c818561256b565b93508360208202850161261e8561257c565b8060005b8581101561265a578484038952815161263b85826125d6565b9450612646836125ea565b925060208a01995050600181019050612622565b50829750879550505050505092915050565b6000602082019050818103600083015261268681846125f7565b905092915050565b60006020820190506126a360008301846120f7565b92915050565b7f476f616c206d7573742062652067726561746572207468616e20300000000000600082015250565b60006126df601b83611fb0565b91506126ea826126a9565b602082019050919050565b6000602082019050818103600083015261270e816126d2565b9050919050565b7f4e487b7100000000000000000000000000000000000000000000000000000000600052601160045260246000fd5b600061274f82611e02565b915061275a83611e02565b925082820190508082111561277257612771612715565b5b92915050565b7f4e487b7100000000000000000000000000000000000000000000000000000000600052602260045260246000fd5b600060028204905060018216806127bf57607f821691505b6020821081036127d2576127d1612778565b5b50919050565b60008190508160005260206000209050919050565b60006020601f8301049050919050565b600082821b905092915050565b60006008830261283a7fffffffffffffffffffffffffffffffffffffffffffffffffffffffffffffffff826127fd565b61284486836127fd565b95508019841693508086168417925050509392505050565b6000819050919050565b600061288161287c61287784611e02565b61285c565b611e02565b9050919050565b6000819050919050565b61289b83612866565b6128af6128a782612888565b84845461280a565b825550505050565b600090565b6128c46128b7565b6128cf818484612892565b505050565b5b818110156128f3576128e86000826128bc565b6001810190506128d5565b5050565b601f82111561293857612909816127d8565b612912846127ed565b81016020851015612921578190505b61293561292d856127ed565b8301826128d4565b50505b505050565b600082821c905092915050565b600061295b6000198460080261293d565b1980831691505092915050565b6000612974838361294a565b9150826002028217905092915050565b61298d82611fa5565b67ffffffffffffffff8111156129a6576129a5611cd7565b5b6129b082546127a7565b6129bb8282856128f7565b600060209050601f8311600181146129ee57600084156129dc578287015190505b6129e68582612968565b865550612a4e565b601f1984166129fc866127d8565b60005b82811015612a24578489015182556001820191506020850194506020810190506129ff565b86831015612a415784890151612a3d601f89168261294a565b8355505b6001600288020188555050505b505050505050565b6000612a6182611e02565b9150612a6c83611e02565b9250828203905081811115612a8457612a83612715565b5b92915050565b7f496e76616c69642050726f6a6563742049640000000000000000000000000000600082015250565b6000612ac0601283611fb0565b9150612acb82612a8a565b602082019050919050565b60006020820190508181036000830152612aef81612ab3565b9050919050565b7f4e487b7100000000000000000000000000000000000000000000000000000000600052603260045260246000fd5b7f596f7520617265206e6f742050726f6a656374204f776e657200000000000000600082015250565b6000612b5b601983611fb0565b9150612b6682612b25565b602082019050919050565b60006020820190508181036000830152612b8a81612b4e565b9050919050565b7f43616d706169676e2046756e64696e672054696d65204e6f742045787069726560008201527f6400000000000000000000000000000000000000000000000000000000000000602082015250565b6000612bed602183611fb0565b9150612bf882612b91565b604082019050919050565b60006020820190508181036000830152612c1c81612be0565b9050919050565b7f46756e64696e6720676f616c206e6f7420726561636865640000000000000000600082015250565b6000612c59601883611fb0565b9150612c6482612c23565b602082019050919050565b60006020820190508181036000830152612c8881612c4c565b9050919050565b7f416c726561647920636c61696d6564207261697365642066756e647300000000600082015250565b6000612cc5601c83611fb0565b9150612cd082612c8f565b602082019050919050565b60006020820190508181036000830152612cf481612cb8565b9050919050565b6000612d0682611e02565b91507fffffffffffffffffffffffffffffffffffffffffffffffffffffffffffffffff8203612d3857612d37612715565b5b600182019050919050565b7f596f7520646964206e6f7420636f6e7472696275746520746f2074686973207060008201527f726f6a6563740000000000000000000000000000000000000000000000000000602082015250565b6000612d9f602683611fb0565b9150612daa82612d43565b604082019050919050565b60006020820190508181036000830152612dce81612d92565b9050919050565b7f496e76616c69642063616d706169676e20696e64657800000000000000000000600082015250565b6000612e0b601683611fb0565b9150612e1682612dd5565b602082019050919050565b60006020820190508181036000830152612e3a81612dfe565b9050919050565b7f43616d706169676e20697320616c726561647920636c6f736564000000000000600082015250565b6000612e77601a83611fb0565b9150612e8282612e41565b602082019050919050565b60006020820190508181036000830152612ea681612e6a565b9050919050565b7f43616d706169676e20686173206e6f7420656e64656420796574000000000000600082015250565b6000612ee3601a83611fb0565b9150612eee82612ead565b602082019050919050565b60006020820190508181036000830152612f1281612ed6565b9050919050565b7f43616d706169676e20697320636c6f7365640000000000000000000000000000600082015250565b6000612f4f601283611fb0565b9150612f5a82612f19565b602082019050919050565b60006020820190508181036000830152612f7e81612f42565b9050919050565b7f596f7520617265207468652043616d706169676e206f776e6572000000000000600082015250565b6000612fbb601a83611fb0565b9150612fc682612f85565b602082019050919050565b60006020820190508181036000830152612fea81612fae565b9050919050565b7f43616d706169676e2068617320656e6465640000000000000000000000000000600082015250565b6000613027601283611fb0565b915061303282612ff1565b602082019050919050565b600060208201905081810360008301526130568161301a565b9050919050565b7f436f6e747269627574696f6e206d75737420626520677265617465722074686160008201527f6e20300000000000000000000000000000000000000000000000000000000000602082015250565b60006130b9602383611fb0565b91506130c48261305d565b604082019050919050565b600060208201905081810360008301526130e8816130ac565b905091905056fea26469706673582212208a9e46bf52670f0e6b417f9d3c38f37de001953cd76b0dbee220d618047afc1064736f6c63430008130033",
  "linkReferences": {},
  "deployedLinkReferences": {}
}