{
  "_format": "hh-sol-artifact-1",
  "contractName": "Crowdr",
  "sourceName": "contracts/Crowdr.sol",
  "abi": [
    {
      "inputs": [
        {
          "internalType": "uint256",
          "name": "",
          "type": "uint256"
        }
      ],
      "name": "campaigns",
      "outputs": [
        {
          "internalType": "string",
          "name": "title",
          "type": "string"
        },
        {
          "internalType": "string",
          "name": "description",
          "type": "string"
        },
        {
          "internalType": "address",
          "name": "creator",
          "type": "address"
        },
        {
          "internalType": "uint256",
          "name": "goal",
          "type": "uint256"
        },
        {
          "internalType": "uint256",
          "name": "endTime",
          "type": "uint256"
        },
        {
          "internalType": "uint256",
          "name": "totalFunds",
          "type": "uint256"
        },
        {
          "internalType": "enum Crowdr.Category",
          "name": "category",
          "type": "uint8"
        },
        {
          "internalType": "bool",
          "name": "isOpen",
          "type": "bool"
        },
        {
          "internalType": "enum Crowdr.RefundPolicy",
          "name": "refundPolicy",
          "type": "uint8"
        },
        {
          "internalType": "bool",
          "name": "claimedAmount",
          "type": "bool"
        },
        {
          "internalType": "string",
          "name": "image",
          "type": "string"
        }
      ],
      "stateMutability": "view",
      "type": "function"
    },
    {
      "inputs": [
        {
          "internalType": "uint256",
          "name": "_index",
          "type": "uint256"
        }
      ],
      "name": "claimFund",
      "outputs": [],
      "stateMutability": "nonpayable",
      "type": "function"
    },
    {
      "inputs": [
        {
          "internalType": "uint256",
          "name": "_campaignIndex",
          "type": "uint256"
        }
      ],
      "name": "closeCampaign",
      "outputs": [],
      "stateMutability": "nonpayable",
      "type": "function"
    },
    {
      "inputs": [
        {
          "internalType": "uint256",
          "name": "_campaignIndex",
          "type": "uint256"
        }
      ],
      "name": "contribute",
      "outputs": [],
      "stateMutability": "payable",
      "type": "function"
    },
    {
      "inputs": [
        {
          "internalType": "uint256",
          "name": "",
          "type": "uint256"
        },
        {
          "internalType": "address",
          "name": "",
          "type": "address"
        }
      ],
      "name": "contributions",
      "outputs": [
        {
          "internalType": "uint256",
          "name": "",
          "type": "uint256"
        }
      ],
      "stateMutability": "view",
      "type": "function"
    },
    {
      "inputs": [
        {
          "internalType": "string",
          "name": "_title",
          "type": "string"
        },
        {
          "internalType": "string",
          "name": "_description",
          "type": "string"
        },
        {
          "internalType": "uint256",
          "name": "_goal",
          "type": "uint256"
        },
        {
          "internalType": "uint256",
          "name": "_duration",
          "type": "uint256"
        },
        {
          "internalType": "enum Crowdr.Category",
          "name": "_category",
          "type": "uint8"
        },
        {
          "internalType": "enum Crowdr.RefundPolicy",
          "name": "_refundPolicy",
          "type": "uint8"
        },
        {
          "internalType": "string",
          "name": "_image",
          "type": "string"
        }
      ],
      "name": "createCampaign",
      "outputs": [],
      "stateMutability": "nonpayable",
      "type": "function"
    },
    {
      "inputs": [],
      "name": "getAllCategories",
      "outputs": [
        {
          "internalType": "string[]",
          "name": "",
          "type": "string[]"
        }
      ],
      "stateMutability": "pure",
      "type": "function"
    },
    {
      "inputs": [
        {
          "internalType": "uint256",
          "name": "_campaignIndex",
          "type": "uint256"
        }
      ],
      "name": "getCampaignDetails",
      "outputs": [
        {
          "internalType": "string",
          "name": "title",
          "type": "string"
        },
        {
          "internalType": "string",
          "name": "description",
          "type": "string"
        },
        {
          "internalType": "address",
          "name": "creator",
          "type": "address"
        },
        {
          "internalType": "uint256",
          "name": "goal",
          "type": "uint256"
        },
        {
          "internalType": "uint256",
          "name": "endTime",
          "type": "uint256"
        },
        {
          "internalType": "uint256",
          "name": "totalFunds",
          "type": "uint256"
        },
        {
          "internalType": "enum Crowdr.Category",
          "name": "category",
          "type": "uint8"
        },
        {
          "internalType": "bool",
          "name": "isOpen",
          "type": "bool"
        },
        {
          "internalType": "string",
          "name": "image",
          "type": "string"
        }
      ],
      "stateMutability": "view",
      "type": "function"
    },
    {
      "inputs": [],
      "name": "getCampaignsLength",
      "outputs": [
        {
          "internalType": "uint256",
          "name": "",
          "type": "uint256"
        }
      ],
      "stateMutability": "view",
      "type": "function"
    },
    {
      "inputs": [
        {
          "internalType": "address",
          "name": "creator",
          "type": "address"
        }
      ],
      "name": "getCreatorCampaigns",
      "outputs": [
        {
          "internalType": "uint256[]",
          "name": "createdCampaigns",
          "type": "uint256[]"
        }
      ],
      "stateMutability": "view",
      "type": "function"
    }
  ],
  "bytecode": "0x608060405234801561001057600080fd5b506128b4806100206000396000f3fe6080604052600436106100915760003560e01c8063b0e1c1e111610059578063b0e1c1e1146101a9578063c1cbbca7146101d2578063d993de62146101ee578063dadd0a5714610233578063fb5474ae1461025e57610091565b80630e71bd1d14610096578063141961bc146100bf57806331c7364f146101065780633d891f591461012f57806376edca3d1461016c575b600080fd5b3480156100a257600080fd5b506100bd60048036038101906100b89190611822565b610289565b005b3480156100cb57600080fd5b506100e660048036038101906100e19190611918565b610561565b6040516100fd9b9a99989796959493929190611aee565b60405180910390f35b34801561011257600080fd5b5061012d60048036038101906101289190611918565b6107b7565b005b34801561013b57600080fd5b5061015660048036038101906101519190611bda565b610b27565b6040516101639190611c1a565b60405180910390f35b34801561017857600080fd5b50610193600480360381019061018e9190611c35565b610b4c565b6040516101a09190611d20565b60405180910390f35b3480156101b557600080fd5b506101d060048036038101906101cb9190611918565b610be3565b005b6101ec60048036038101906101e79190611918565b610d88565b005b3480156101fa57600080fd5b5061021560048036038101906102109190611918565b610fe8565b60405161022a99989796959493929190611d42565b60405180910390f35b34801561023f57600080fd5b5061024861128b565b6040516102559190611ef0565b60405180910390f35b34801561026a57600080fd5b5061027361163b565b6040516102809190611c1a565b60405180910390f35b600085116102cc576040517f08c379a00000000000000000000000000000000000000000000000000000000081526004016102c390611f5e565b60405180910390fd5b60006040518061016001604052808981526020018881526020013373ffffffffffffffffffffffffffffffffffffffff16815260200187815260200186426103149190611fad565b81526020016000815260200185600781111561033357610332611a14565b5b815260200160011515815260200184600181111561035457610353611a14565b5b8152602001600015158152602001838152509050600281908060018154018082558091505060019003906000526020600020906008020160009091909190915060008201518160000190816103a991906121ed565b5060208201518160010190816103bf91906121ed565b5060408201518160020160006101000a81548173ffffffffffffffffffffffffffffffffffffffff021916908373ffffffffffffffffffffffffffffffffffffffff160217905550606082015181600301556080820151816004015560a0820151816005015560c08201518160060160006101000a81548160ff021916908360078111156104505761044f611a14565b5b021790555060e08201518160060160016101000a81548160ff0219169083151502179055506101008201518160060160026101000a81548160ff021916908360018111156104a1576104a0611a14565b5b02179055506101208201518160060160036101000a81548160ff0219169083151502179055506101408201518160070190816104dd91906121ed565b505050600160003373ffffffffffffffffffffffffffffffffffffffff1673ffffffffffffffffffffffffffffffffffffffff168152602001908152602001600020600160028054905061053191906122bf565b90806001815401808255809150506001900390600052602060002001600090919091909150555050505050505050565b6002818154811061057157600080fd5b906000526020600020906008020160009150905080600001805461059490612010565b80601f01602080910402602001604051908101604052809291908181526020018280546105c090612010565b801561060d5780601f106105e25761010080835404028352916020019161060d565b820191906000526020600020905b8154815290600101906020018083116105f057829003601f168201915b50505050509080600101805461062290612010565b80601f016020809104026020016040519081016040528092919081815260200182805461064e90612010565b801561069b5780601f106106705761010080835404028352916020019161069b565b820191906000526020600020905b81548152906001019060200180831161067e57829003601f168201915b5050505050908060020160009054906101000a900473ffffffffffffffffffffffffffffffffffffffff16908060030154908060040154908060050154908060060160009054906101000a900460ff16908060060160019054906101000a900460ff16908060060160029054906101000a900460ff16908060060160039054906101000a900460ff169080600701805461073490612010565b80601f016020809104026020016040519081016040528092919081815260200182805461076090612010565b80156107ad5780601f10610782576101008083540402835291602001916107ad565b820191906000526020600020905b81548152906001019060200180831161079057829003601f168201915b505050505090508b565b8060028054905081106107ff576040517f08c379a00000000000000000000000000000000000000000000000000000000081526004016107f69061233f565b60405180910390fd5b3373ffffffffffffffffffffffffffffffffffffffff166002838154811061082a5761082961235f565b5b906000526020600020906008020160020160009054906101000a900473ffffffffffffffffffffffffffffffffffffffff1673ffffffffffffffffffffffffffffffffffffffff16146108b2576040517f08c379a00000000000000000000000000000000000000000000000000000000081526004016108a9906123da565b60405180910390fd5b42600283815481106108c7576108c661235f565b5b90600052602060002090600802016004015410610919576040517f08c379a00000000000000000000000000000000000000000000000000000000081526004016109109061246c565b60405180910390fd5b60018081111561092c5761092b611a14565b5b600283815481106109405761093f61235f565b5b906000526020600020906008020160060160029054906101000a900460ff16600181111561097157610970611a14565b5b14806109c757506002828154811061098c5761098b61235f565b5b906000526020600020906008020160030154600283815481106109b2576109b161235f565b5b90600052602060002090600802016005015410155b610a06576040517f08c379a00000000000000000000000000000000000000000000000000000000081526004016109fd906124d8565b60405180910390fd5b60028281548110610a1a57610a1961235f565b5b906000526020600020906008020160060160039054906101000a900460ff1615610a79576040517f08c379a0000000000000000000000000000000000000000000000000000000008152600401610a7090612544565b60405180910390fd5b600160028381548110610a8f57610a8e61235f565b5b906000526020600020906008020160060160036101000a81548160ff0219169083151502179055503373ffffffffffffffffffffffffffffffffffffffff166108fc60028481548110610ae557610ae461235f565b5b9060005260206000209060080201600501549081150290604051600060405180830381858888f19350505050158015610b22573d6000803e3d6000fd5b505050565b6000602052816000526040600020602052806000526040600020600091509150505481565b6060600160008373ffffffffffffffffffffffffffffffffffffffff1673ffffffffffffffffffffffffffffffffffffffff168152602001908152602001600020805480602002602001604051908101604052809291908181526020018280548015610bd757602002820191906000526020600020905b815481526020019060010190808311610bc3575b50505050509050919050565b6002805490508110610c2a576040517f08c379a0000000000000000000000000000000000000000000000000000000008152600401610c21906125b0565b60405180910390fd5b600060028281548110610c4057610c3f61235f565b5b906000526020600020906008020190508060060160019054906101000a900460ff16610ca1576040517f08c379a0000000000000000000000000000000000000000000000000000000008152600401610c989061261c565b60405180910390fd5b8060040154421015610ce8576040517f08c379a0000000000000000000000000000000000000000000000000000000008152600401610cdf90612688565b60405180910390fd5b8060030154816005015410610d67578060020160009054906101000a900473ffffffffffffffffffffffffffffffffffffffff1673ffffffffffffffffffffffffffffffffffffffff166108fc82600501549081150290604051600060405180830381858888f19350505050158015610d65573d6000803e3d6000fd5b505b60008160060160016101000a81548160ff0219169083151502179055505050565b806002805490508110610dd0576040517f08c379a0000000000000000000000000000000000000000000000000000000008152600401610dc79061233f565b60405180910390fd5b600060028381548110610de657610de561235f565b5b906000526020600020906008020190508060060160019054906101000a900460ff16610e47576040517f08c379a0000000000000000000000000000000000000000000000000000000008152600401610e3e906126f4565b60405180910390fd5b3373ffffffffffffffffffffffffffffffffffffffff168160020160009054906101000a900473ffffffffffffffffffffffffffffffffffffffff1673ffffffffffffffffffffffffffffffffffffffff1603610ed9576040517f08c379a0000000000000000000000000000000000000000000000000000000008152600401610ed090612760565b60405180910390fd5b80600401544210610f1f576040517f08c379a0000000000000000000000000000000000000000000000000000000008152600401610f16906127cc565b60405180910390fd5b60003411610f62576040517f08c379a0000000000000000000000000000000000000000000000000000000008152600401610f599061285e565b60405180910390fd5b3460008085815260200190815260200160002060003373ffffffffffffffffffffffffffffffffffffffff1673ffffffffffffffffffffffffffffffffffffffff1681526020019081526020016000206000828254610fc19190611fad565b9250508190555034816005016000828254610fdc9190611fad565b92505081905550505050565b60608060008060008060008060606002805490508a1061103d576040517f08c379a0000000000000000000000000000000000000000000000000000000008152600401611034906125b0565b60405180910390fd5b600060028b815481106110535761105261235f565b5b9060005260206000209060080201905080600001816001018260020160009054906101000a900473ffffffffffffffffffffffffffffffffffffffff168360030154846004015485600501548660060160009054906101000a900460ff168760060160019054906101000a900460ff16886007018880546110d390612010565b80601f01602080910402602001604051908101604052809291908181526020018280546110ff90612010565b801561114c5780601f106111215761010080835404028352916020019161114c565b820191906000526020600020905b81548152906001019060200180831161112f57829003601f168201915b5050505050985087805461115f90612010565b80601f016020809104026020016040519081016040528092919081815260200182805461118b90612010565b80156111d85780601f106111ad576101008083540402835291602001916111d8565b820191906000526020600020905b8154815290600101906020018083116111bb57829003601f168201915b505050505097508080546111eb90612010565b80601f016020809104026020016040519081016040528092919081815260200182805461121790612010565b80156112645780601f1061123957610100808354040283529160200191611264565b820191906000526020600020905b81548152906001019060200180831161124757829003601f168201915b50505050509050995099509950995099509950995099509950509193959799909294969850565b6060600060016007808111156112a4576112a3611a14565b5b6112ae9190611fad565b67ffffffffffffffff8111156112c7576112c6611677565b5b6040519080825280602002602001820160405280156112fa57816020015b60608152602001906001900390816112e55790505b5090506040518060400160405280601181526020017f43524541544956455f50524f4a45435453000000000000000000000000000000815250816000600781111561134857611347611a14565b5b815181106113595761135861235f565b5b60200260200101819052506040518060400160405280601981526020017f544543484e4f4c4f47595f414e445f494e4e4f564154494f4e0000000000000081525081600160078111156113af576113ae611a14565b5b815181106113c0576113bf61235f565b5b60200260200101819052506040518060400160405280601481526020017f464f4f445f414e445f4147524943554c54555245000000000000000000000000815250816002600781111561141657611415611a14565b5b815181106114275761142661235f565b5b60200260200101819052506040518060400160405280600d81526020017f534f4349414c5f43415553455300000000000000000000000000000000000000815250816003600781111561147d5761147c611a14565b5b8151811061148e5761148d61235f565b5b60200260200101819052506040518060400160405280600d81526020017f4556454e545f46554e44494e470000000000000000000000000000000000000081525081600460078111156114e4576114e3611a14565b5b815181106114f5576114f461235f565b5b60200260200101819052506040518060400160405280600481526020017f5245464900000000000000000000000000000000000000000000000000000000815250816005600781111561154b5761154a611a14565b5b8151811061155c5761155b61235f565b5b60200260200101819052506040518060400160405280601081526020017f52454e455741424c455f454e455247590000000000000000000000000000000081525081600660078111156115b2576115b1611a14565b5b815181106115c3576115c261235f565b5b60200260200101819052506040518060400160405280600e81526020017f414e494d414c5f57454c464152450000000000000000000000000000000000008152508160078081111561161857611617611a14565b5b815181106116295761162861235f565b5b60200260200101819052508091505090565b6000600280549050905090565b6000604051905090565b600080fd5b600080fd5b600080fd5b600080fd5b6000601f19601f8301169050919050565b7f4e487b7100000000000000000000000000000000000000000000000000000000600052604160045260246000fd5b6116af82611666565b810181811067ffffffffffffffff821117156116ce576116cd611677565b5b80604052505050565b60006116e1611648565b90506116ed82826116a6565b919050565b600067ffffffffffffffff82111561170d5761170c611677565b5b61171682611666565b9050602081019050919050565b82818337600083830152505050565b6000611745611740846116f2565b6116d7565b90508281526020810184848401111561176157611760611661565b5b61176c848285611723565b509392505050565b600082601f8301126117895761178861165c565b5b8135611799848260208601611732565b91505092915050565b6000819050919050565b6117b5816117a2565b81146117c057600080fd5b50565b6000813590506117d2816117ac565b92915050565b600881106117e557600080fd5b50565b6000813590506117f7816117d8565b92915050565b6002811061180a57600080fd5b50565b60008135905061181c816117fd565b92915050565b600080600080600080600060e0888a03121561184157611840611652565b5b600088013567ffffffffffffffff81111561185f5761185e611657565b5b61186b8a828b01611774565b975050602088013567ffffffffffffffff81111561188c5761188b611657565b5b6118988a828b01611774565b96505060406118a98a828b016117c3565b95505060606118ba8a828b016117c3565b94505060806118cb8a828b016117e8565b93505060a06118dc8a828b0161180d565b92505060c088013567ffffffffffffffff8111156118fd576118fc611657565b5b6119098a828b01611774565b91505092959891949750929550565b60006020828403121561192e5761192d611652565b5b600061193c848285016117c3565b91505092915050565b600081519050919050565b600082825260208201905092915050565b60005b8381101561197f578082015181840152602081019050611964565b60008484015250505050565b600061199682611945565b6119a08185611950565b93506119b0818560208601611961565b6119b981611666565b840191505092915050565b600073ffffffffffffffffffffffffffffffffffffffff82169050919050565b60006119ef826119c4565b9050919050565b6119ff816119e4565b82525050565b611a0e816117a2565b82525050565b7f4e487b7100000000000000000000000000000000000000000000000000000000600052602160045260246000fd5b60088110611a5457611a53611a14565b5b50565b6000819050611a6582611a43565b919050565b6000611a7582611a57565b9050919050565b611a8581611a6a565b82525050565b60008115159050919050565b611aa081611a8b565b82525050565b60028110611ab757611ab6611a14565b5b50565b6000819050611ac882611aa6565b919050565b6000611ad882611aba565b9050919050565b611ae881611acd565b82525050565b6000610160820190508181036000830152611b09818e61198b565b90508181036020830152611b1d818d61198b565b9050611b2c604083018c6119f6565b611b39606083018b611a05565b611b46608083018a611a05565b611b5360a0830189611a05565b611b6060c0830188611a7c565b611b6d60e0830187611a97565b611b7b610100830186611adf565b611b89610120830185611a97565b818103610140830152611b9c818461198b565b90509c9b505050505050505050505050565b611bb7816119e4565b8114611bc257600080fd5b50565b600081359050611bd481611bae565b92915050565b60008060408385031215611bf157611bf0611652565b5b6000611bff858286016117c3565b9250506020611c1085828601611bc5565b9150509250929050565b6000602082019050611c2f6000830184611a05565b92915050565b600060208284031215611c4b57611c4a611652565b5b6000611c5984828501611bc5565b91505092915050565b600081519050919050565b600082825260208201905092915050565b6000819050602082019050919050565b611c97816117a2565b82525050565b6000611ca98383611c8e565b60208301905092915050565b6000602082019050919050565b6000611ccd82611c62565b611cd78185611c6d565b9350611ce283611c7e565b8060005b83811015611d13578151611cfa8882611c9d565b9750611d0583611cb5565b925050600181019050611ce6565b5085935050505092915050565b60006020820190508181036000830152611d3a8184611cc2565b905092915050565b6000610120820190508181036000830152611d5d818c61198b565b90508181036020830152611d71818b61198b565b9050611d80604083018a6119f6565b611d8d6060830189611a05565b611d9a6080830188611a05565b611da760a0830187611a05565b611db460c0830186611a7c565b611dc160e0830185611a97565b818103610100830152611dd4818461198b565b90509a9950505050505050505050565b600081519050919050565b600082825260208201905092915050565b6000819050602082019050919050565b600082825260208201905092915050565b6000611e2c82611945565b611e368185611e10565b9350611e46818560208601611961565b611e4f81611666565b840191505092915050565b6000611e668383611e21565b905092915050565b6000602082019050919050565b6000611e8682611de4565b611e908185611def565b935083602082028501611ea285611e00565b8060005b85811015611ede5784840389528151611ebf8582611e5a565b9450611eca83611e6e565b925060208a01995050600181019050611ea6565b50829750879550505050505092915050565b60006020820190508181036000830152611f0a8184611e7b565b905092915050565b7f476f616c206d7573742062652067726561746572207468616e20300000000000600082015250565b6000611f48601b83611950565b9150611f5382611f12565b602082019050919050565b60006020820190508181036000830152611f7781611f3b565b9050919050565b7f4e487b7100000000000000000000000000000000000000000000000000000000600052601160045260246000fd5b6000611fb8826117a2565b9150611fc3836117a2565b9250828201905080821115611fdb57611fda611f7e565b5b92915050565b7f4e487b7100000000000000000000000000000000000000000000000000000000600052602260045260246000fd5b6000600282049050600182168061202857607f821691505b60208210810361203b5761203a611fe1565b5b50919050565b60008190508160005260206000209050919050565b60006020601f8301049050919050565b600082821b905092915050565b6000600883026120a37fffffffffffffffffffffffffffffffffffffffffffffffffffffffffffffffff82612066565b6120ad8683612066565b95508019841693508086168417925050509392505050565b6000819050919050565b60006120ea6120e56120e0846117a2565b6120c5565b6117a2565b9050919050565b6000819050919050565b612104836120cf565b612118612110826120f1565b848454612073565b825550505050565b600090565b61212d612120565b6121388184846120fb565b505050565b5b8181101561215c57612151600082612125565b60018101905061213e565b5050565b601f8211156121a15761217281612041565b61217b84612056565b8101602085101561218a578190505b61219e61219685612056565b83018261213d565b50505b505050565b600082821c905092915050565b60006121c4600019846008026121a6565b1980831691505092915050565b60006121dd83836121b3565b9150826002028217905092915050565b6121f682611945565b67ffffffffffffffff81111561220f5761220e611677565b5b6122198254612010565b612224828285612160565b600060209050601f8311600181146122575760008415612245578287015190505b61224f85826121d1565b8655506122b7565b601f19841661226586612041565b60005b8281101561228d57848901518255600182019150602085019450602081019050612268565b868310156122aa57848901516122a6601f8916826121b3565b8355505b6001600288020188555050505b505050505050565b60006122ca826117a2565b91506122d5836117a2565b92508282039050818111156122ed576122ec611f7e565b5b92915050565b7f496e76616c69642050726f6a6563742049640000000000000000000000000000600082015250565b6000612329601283611950565b9150612334826122f3565b602082019050919050565b600060208201905081810360008301526123588161231c565b9050919050565b7f4e487b7100000000000000000000000000000000000000000000000000000000600052603260045260246000fd5b7f596f7520617265206e6f742050726f6a656374204f776e657200000000000000600082015250565b60006123c4601983611950565b91506123cf8261238e565b602082019050919050565b600060208201905081810360008301526123f3816123b7565b9050919050565b7f43616d706169676e2046756e64696e672054696d65204e6f742045787069726560008201527f6400000000000000000000000000000000000000000000000000000000000000602082015250565b6000612456602183611950565b9150612461826123fa565b604082019050919050565b6000602082019050818103600083015261248581612449565b9050919050565b7f46756e64696e6720676f616c206e6f7420726561636865640000000000000000600082015250565b60006124c2601883611950565b91506124cd8261248c565b602082019050919050565b600060208201905081810360008301526124f1816124b5565b9050919050565b7f416c726561647920636c61696d6564207261697365642066756e647300000000600082015250565b600061252e601c83611950565b9150612539826124f8565b602082019050919050565b6000602082019050818103600083015261255d81612521565b9050919050565b7f496e76616c69642063616d706169676e20696e64657800000000000000000000600082015250565b600061259a601683611950565b91506125a582612564565b602082019050919050565b600060208201905081810360008301526125c98161258d565b9050919050565b7f43616d706169676e20697320616c726561647920636c6f736564000000000000600082015250565b6000612606601a83611950565b9150612611826125d0565b602082019050919050565b60006020820190508181036000830152612635816125f9565b9050919050565b7f43616d706169676e20686173206e6f7420656e64656420796574000000000000600082015250565b6000612672601a83611950565b915061267d8261263c565b602082019050919050565b600060208201905081810360008301526126a181612665565b9050919050565b7f43616d706169676e20697320636c6f7365640000000000000000000000000000600082015250565b60006126de601283611950565b91506126e9826126a8565b602082019050919050565b6000602082019050818103600083015261270d816126d1565b9050919050565b7f596f7520617265207468652043616d706169676e206f776e6572000000000000600082015250565b600061274a601a83611950565b915061275582612714565b602082019050919050565b600060208201905081810360008301526127798161273d565b9050919050565b7f43616d706169676e2068617320656e6465640000000000000000000000000000600082015250565b60006127b6601283611950565b91506127c182612780565b602082019050919050565b600060208201905081810360008301526127e5816127a9565b9050919050565b7f436f6e747269627574696f6e206d75737420626520677265617465722074686160008201527f6e20300000000000000000000000000000000000000000000000000000000000602082015250565b6000612848602383611950565b9150612853826127ec565b604082019050919050565b600060208201905081810360008301526128778161283b565b905091905056fea2646970667358221220a1073d1e7fc45c71424c566bc364d49a4453259249204c51a470e604f8286d7b64736f6c63430008130033",
  "linkReferences": {},
  "deployedLinkReferences": {}
}