{
  "_format": "hh-sol-artifact-1",
  "contractName": "Crowdr",
  "sourceName": "contracts/Crowdr.sol",
  "abi": [
    {
      "inputs": [
        {
          "internalType": "uint256",
          "name": "",
          "type": "uint256"
        }
      ],
      "name": "campaigns",
      "outputs": [
        {
          "internalType": "string",
          "name": "title",
          "type": "string"
        },
        {
          "internalType": "string",
          "name": "description",
          "type": "string"
        },
        {
          "internalType": "address",
          "name": "creator",
          "type": "address"
        },
        {
          "internalType": "uint256",
          "name": "goal",
          "type": "uint256"
        },
        {
          "internalType": "uint256",
          "name": "endTime",
          "type": "uint256"
        },
        {
          "internalType": "uint256",
          "name": "totalFunds",
          "type": "uint256"
        },
        {
          "internalType": "enum Crowdr.Category",
          "name": "category",
          "type": "uint8"
        },
        {
          "internalType": "bool",
          "name": "isOpen",
          "type": "bool"
        },
        {
          "internalType": "enum Crowdr.RefundPolicy",
          "name": "refundPolicy",
          "type": "uint8"
        },
        {
          "internalType": "bool",
          "name": "claimedAmount",
          "type": "bool"
        },
        {
          "internalType": "string",
          "name": "image",
          "type": "string"
        }
      ],
      "stateMutability": "view",
      "type": "function"
    },
    {
      "inputs": [
        {
          "internalType": "uint256",
          "name": "_index",
          "type": "uint256"
        }
      ],
      "name": "claimFund",
      "outputs": [],
      "stateMutability": "nonpayable",
      "type": "function"
    },
    {
      "inputs": [
        {
          "internalType": "uint256",
          "name": "_campaignIndex",
          "type": "uint256"
        }
      ],
      "name": "closeCampaign",
      "outputs": [],
      "stateMutability": "nonpayable",
      "type": "function"
    },
    {
      "inputs": [
        {
          "internalType": "uint256",
          "name": "_campaignIndex",
          "type": "uint256"
        }
      ],
      "name": "contribute",
      "outputs": [],
      "stateMutability": "payable",
      "type": "function"
    },
    {
      "inputs": [
        {
          "internalType": "uint256",
          "name": "",
          "type": "uint256"
        },
        {
          "internalType": "address",
          "name": "",
          "type": "address"
        }
      ],
      "name": "contributions",
      "outputs": [
        {
          "internalType": "uint256",
          "name": "",
          "type": "uint256"
        }
      ],
      "stateMutability": "view",
      "type": "function"
    },
    {
      "inputs": [
        {
          "internalType": "string",
          "name": "_title",
          "type": "string"
        },
        {
          "internalType": "string",
          "name": "_description",
          "type": "string"
        },
        {
          "internalType": "uint256",
          "name": "_goal",
          "type": "uint256"
        },
        {
          "internalType": "uint256",
          "name": "_duration",
          "type": "uint256"
        },
        {
          "internalType": "enum Crowdr.Category",
          "name": "_category",
          "type": "uint8"
        },
        {
          "internalType": "string",
          "name": "_image",
          "type": "string"
        }
      ],
      "name": "createCampaign",
      "outputs": [],
      "stateMutability": "nonpayable",
      "type": "function"
    },
    {
      "inputs": [],
      "name": "getAllCategories",
      "outputs": [
        {
          "internalType": "string[]",
          "name": "",
          "type": "string[]"
        }
      ],
      "stateMutability": "pure",
      "type": "function"
    },
    {
      "inputs": [
        {
          "internalType": "uint256",
          "name": "_campaignIndex",
          "type": "uint256"
        }
      ],
      "name": "getCampaignDetails",
      "outputs": [
        {
          "internalType": "string",
          "name": "title",
          "type": "string"
        },
        {
          "internalType": "string",
          "name": "description",
          "type": "string"
        },
        {
          "internalType": "address",
          "name": "creator",
          "type": "address"
        },
        {
          "internalType": "uint256",
          "name": "goal",
          "type": "uint256"
        },
        {
          "internalType": "uint256",
          "name": "endTime",
          "type": "uint256"
        },
        {
          "internalType": "uint256",
          "name": "totalFunds",
          "type": "uint256"
        },
        {
          "internalType": "enum Crowdr.Category",
          "name": "category",
          "type": "uint8"
        },
        {
          "internalType": "bool",
          "name": "isOpen",
          "type": "bool"
        },
        {
          "internalType": "string",
          "name": "image",
          "type": "string"
        }
      ],
      "stateMutability": "view",
      "type": "function"
    },
    {
      "inputs": [],
      "name": "getCampaignsLength",
      "outputs": [
        {
          "internalType": "uint256",
          "name": "",
          "type": "uint256"
        }
      ],
      "stateMutability": "view",
      "type": "function"
    },
    {
      "inputs": [
        {
          "internalType": "address",
          "name": "creator",
          "type": "address"
        }
      ],
      "name": "getCreatorCampaigns",
      "outputs": [
        {
          "internalType": "uint256[]",
          "name": "createdCampaigns",
          "type": "uint256[]"
        }
      ],
      "stateMutability": "view",
      "type": "function"
    }
  ],
  "bytecode": "0x608060405234801561001057600080fd5b50612879806100206000396000f3fe6080604052600436106100915760003560e01c8063b0e1c1e111610059578063b0e1c1e1146101a9578063c1cbbca7146101d2578063d993de62146101ee578063dadd0a5714610233578063fb5474ae1461025e57610091565b8063141961bc1461009657806331c7364f146100dd5780633d891f5914610106578063651057d01461014357806376edca3d1461016c575b600080fd5b3480156100a257600080fd5b506100bd60048036038101906100b89190611691565b610289565b6040516100d49b9a99989796959493929190611878565b60405180910390f35b3480156100e957600080fd5b5061010460048036038101906100ff9190611691565b6104df565b005b34801561011257600080fd5b5061012d60048036038101906101289190611964565b61084f565b60405161013a91906119a4565b60405180910390f35b34801561014f57600080fd5b5061016a60048036038101906101659190611b19565b610874565b005b34801561017857600080fd5b50610193600480360381019061018e9190611bfa565b610b4b565b6040516101a09190611ce5565b60405180910390f35b3480156101b557600080fd5b506101d060048036038101906101cb9190611691565b610be2565b005b6101ec60048036038101906101e79190611691565b610d87565b005b3480156101fa57600080fd5b5061021560048036038101906102109190611691565b610fe7565b60405161022a99989796959493929190611d07565b60405180910390f35b34801561023f57600080fd5b5061024861128a565b6040516102559190611eb5565b60405180910390f35b34801561026a57600080fd5b5061027361163a565b60405161028091906119a4565b60405180910390f35b6002818154811061029957600080fd5b90600052602060002090600802016000915090508060000180546102bc90611f06565b80601f01602080910402602001604051908101604052809291908181526020018280546102e890611f06565b80156103355780601f1061030a57610100808354040283529160200191610335565b820191906000526020600020905b81548152906001019060200180831161031857829003601f168201915b50505050509080600101805461034a90611f06565b80601f016020809104026020016040519081016040528092919081815260200182805461037690611f06565b80156103c35780601f10610398576101008083540402835291602001916103c3565b820191906000526020600020905b8154815290600101906020018083116103a657829003601f168201915b5050505050908060020160009054906101000a900473ffffffffffffffffffffffffffffffffffffffff16908060030154908060040154908060050154908060060160009054906101000a900460ff16908060060160019054906101000a900460ff16908060060160029054906101000a900460ff16908060060160039054906101000a900460ff169080600701805461045c90611f06565b80601f016020809104026020016040519081016040528092919081815260200182805461048890611f06565b80156104d55780601f106104aa576101008083540402835291602001916104d5565b820191906000526020600020905b8154815290600101906020018083116104b857829003601f168201915b505050505090508b565b806002805490508110610527576040517f08c379a000000000000000000000000000000000000000000000000000000000815260040161051e90611f83565b60405180910390fd5b3373ffffffffffffffffffffffffffffffffffffffff166002838154811061055257610551611fa3565b5b906000526020600020906008020160020160009054906101000a900473ffffffffffffffffffffffffffffffffffffffff1673ffffffffffffffffffffffffffffffffffffffff16146105da576040517f08c379a00000000000000000000000000000000000000000000000000000000081526004016105d19061201e565b60405180910390fd5b42600283815481106105ef576105ee611fa3565b5b90600052602060002090600802016004015410610641576040517f08c379a0000000000000000000000000000000000000000000000000000000008152600401610638906120b0565b60405180910390fd5b6001808111156106545761065361179e565b5b6002838154811061066857610667611fa3565b5b906000526020600020906008020160060160029054906101000a900460ff1660018111156106995761069861179e565b5b14806106ef5750600282815481106106b4576106b3611fa3565b5b906000526020600020906008020160030154600283815481106106da576106d9611fa3565b5b90600052602060002090600802016005015410155b61072e576040517f08c379a00000000000000000000000000000000000000000000000000000000081526004016107259061211c565b60405180910390fd5b6002828154811061074257610741611fa3565b5b906000526020600020906008020160060160039054906101000a900460ff16156107a1576040517f08c379a000000000000000000000000000000000000000000000000000000000815260040161079890612188565b60405180910390fd5b6001600283815481106107b7576107b6611fa3565b5b906000526020600020906008020160060160036101000a81548160ff0219169083151502179055503373ffffffffffffffffffffffffffffffffffffffff166108fc6002848154811061080d5761080c611fa3565b5b9060005260206000209060080201600501549081150290604051600060405180830381858888f1935050505015801561084a573d6000803e3d6000fd5b505050565b6000602052816000526040600020602052806000526040600020600091509150505481565b600084116108b7576040517f08c379a00000000000000000000000000000000000000000000000000000000081526004016108ae906121f4565b60405180910390fd5b60006040518061016001604052808881526020018781526020013373ffffffffffffffffffffffffffffffffffffffff16815260200186815260200185426108ff9190612243565b81526020016000815260200184600781111561091e5761091d61179e565b5b815260200160011515815260200160018081111561093f5761093e61179e565b5b8152602001600015158152602001838152509050600281908060018154018082558091505060019003906000526020600020906008020160009091909190915060008201518160000190816109949190612423565b5060208201518160010190816109aa9190612423565b5060408201518160020160006101000a81548173ffffffffffffffffffffffffffffffffffffffff021916908373ffffffffffffffffffffffffffffffffffffffff160217905550606082015181600301556080820151816004015560a0820151816005015560c08201518160060160006101000a81548160ff02191690836007811115610a3b57610a3a61179e565b5b021790555060e08201518160060160016101000a81548160ff0219169083151502179055506101008201518160060160026101000a81548160ff02191690836001811115610a8c57610a8b61179e565b5b02179055506101208201518160060160036101000a81548160ff021916908315150217905550610140820151816007019081610ac89190612423565b505050600160003373ffffffffffffffffffffffffffffffffffffffff1673ffffffffffffffffffffffffffffffffffffffff1681526020019081526020016000206001600280549050610b1c91906124f5565b908060018154018082558091505060019003906000526020600020016000909190919091505550505050505050565b6060600160008373ffffffffffffffffffffffffffffffffffffffff1673ffffffffffffffffffffffffffffffffffffffff168152602001908152602001600020805480602002602001604051908101604052809291908181526020018280548015610bd657602002820191906000526020600020905b815481526020019060010190808311610bc2575b50505050509050919050565b6002805490508110610c29576040517f08c379a0000000000000000000000000000000000000000000000000000000008152600401610c2090612575565b60405180910390fd5b600060028281548110610c3f57610c3e611fa3565b5b906000526020600020906008020190508060060160019054906101000a900460ff16610ca0576040517f08c379a0000000000000000000000000000000000000000000000000000000008152600401610c97906125e1565b60405180910390fd5b8060040154421015610ce7576040517f08c379a0000000000000000000000000000000000000000000000000000000008152600401610cde9061264d565b60405180910390fd5b8060030154816005015410610d66578060020160009054906101000a900473ffffffffffffffffffffffffffffffffffffffff1673ffffffffffffffffffffffffffffffffffffffff166108fc82600501549081150290604051600060405180830381858888f19350505050158015610d64573d6000803e3d6000fd5b505b60008160060160016101000a81548160ff0219169083151502179055505050565b806002805490508110610dcf576040517f08c379a0000000000000000000000000000000000000000000000000000000008152600401610dc690611f83565b60405180910390fd5b600060028381548110610de557610de4611fa3565b5b906000526020600020906008020190508060060160019054906101000a900460ff16610e46576040517f08c379a0000000000000000000000000000000000000000000000000000000008152600401610e3d906126b9565b60405180910390fd5b3373ffffffffffffffffffffffffffffffffffffffff168160020160009054906101000a900473ffffffffffffffffffffffffffffffffffffffff1673ffffffffffffffffffffffffffffffffffffffff1603610ed8576040517f08c379a0000000000000000000000000000000000000000000000000000000008152600401610ecf90612725565b60405180910390fd5b80600401544210610f1e576040517f08c379a0000000000000000000000000000000000000000000000000000000008152600401610f1590612791565b60405180910390fd5b60003411610f61576040517f08c379a0000000000000000000000000000000000000000000000000000000008152600401610f5890612823565b60405180910390fd5b3460008085815260200190815260200160002060003373ffffffffffffffffffffffffffffffffffffffff1673ffffffffffffffffffffffffffffffffffffffff1681526020019081526020016000206000828254610fc09190612243565b9250508190555034816005016000828254610fdb9190612243565b92505081905550505050565b60608060008060008060008060606002805490508a1061103c576040517f08c379a000000000000000000000000000000000000000000000000000000000815260040161103390612575565b60405180910390fd5b600060028b8154811061105257611051611fa3565b5b9060005260206000209060080201905080600001816001018260020160009054906101000a900473ffffffffffffffffffffffffffffffffffffffff168360030154846004015485600501548660060160009054906101000a900460ff168760060160019054906101000a900460ff16886007018880546110d290611f06565b80601f01602080910402602001604051908101604052809291908181526020018280546110fe90611f06565b801561114b5780601f106111205761010080835404028352916020019161114b565b820191906000526020600020905b81548152906001019060200180831161112e57829003601f168201915b5050505050985087805461115e90611f06565b80601f016020809104026020016040519081016040528092919081815260200182805461118a90611f06565b80156111d75780601f106111ac576101008083540402835291602001916111d7565b820191906000526020600020905b8154815290600101906020018083116111ba57829003601f168201915b505050505097508080546111ea90611f06565b80601f016020809104026020016040519081016040528092919081815260200182805461121690611f06565b80156112635780601f1061123857610100808354040283529160200191611263565b820191906000526020600020905b81548152906001019060200180831161124657829003601f168201915b50505050509050995099509950995099509950995099509950509193959799909294969850565b6060600060016007808111156112a3576112a261179e565b5b6112ad9190612243565b67ffffffffffffffff8111156112c6576112c56119c9565b5b6040519080825280602002602001820160405280156112f957816020015b60608152602001906001900390816112e45790505b5090506040518060400160405280601181526020017f43524541544956455f50524f4a4543545300000000000000000000000000000081525081600060078111156113475761134661179e565b5b8151811061135857611357611fa3565b5b60200260200101819052506040518060400160405280601981526020017f544543484e4f4c4f47595f414e445f494e4e4f564154494f4e0000000000000081525081600160078111156113ae576113ad61179e565b5b815181106113bf576113be611fa3565b5b60200260200101819052506040518060400160405280601481526020017f464f4f445f414e445f4147524943554c5455524500000000000000000000000081525081600260078111156114155761141461179e565b5b8151811061142657611425611fa3565b5b60200260200101819052506040518060400160405280600d81526020017f534f4349414c5f43415553455300000000000000000000000000000000000000815250816003600781111561147c5761147b61179e565b5b8151811061148d5761148c611fa3565b5b60200260200101819052506040518060400160405280600d81526020017f4556454e545f46554e44494e470000000000000000000000000000000000000081525081600460078111156114e3576114e261179e565b5b815181106114f4576114f3611fa3565b5b60200260200101819052506040518060400160405280600481526020017f5245464900000000000000000000000000000000000000000000000000000000815250816005600781111561154a5761154961179e565b5b8151811061155b5761155a611fa3565b5b60200260200101819052506040518060400160405280601081526020017f52454e455741424c455f454e455247590000000000000000000000000000000081525081600660078111156115b1576115b061179e565b5b815181106115c2576115c1611fa3565b5b60200260200101819052506040518060400160405280600e81526020017f414e494d414c5f57454c46415245000000000000000000000000000000000000815250816007808111156116175761161661179e565b5b8151811061162857611627611fa3565b5b60200260200101819052508091505090565b6000600280549050905090565b6000604051905090565b600080fd5b600080fd5b6000819050919050565b61166e8161165b565b811461167957600080fd5b50565b60008135905061168b81611665565b92915050565b6000602082840312156116a7576116a6611651565b5b60006116b58482850161167c565b91505092915050565b600081519050919050565b600082825260208201905092915050565b60005b838110156116f85780820151818401526020810190506116dd565b60008484015250505050565b6000601f19601f8301169050919050565b6000611720826116be565b61172a81856116c9565b935061173a8185602086016116da565b61174381611704565b840191505092915050565b600073ffffffffffffffffffffffffffffffffffffffff82169050919050565b60006117798261174e565b9050919050565b6117898161176e565b82525050565b6117988161165b565b82525050565b7f4e487b7100000000000000000000000000000000000000000000000000000000600052602160045260246000fd5b600881106117de576117dd61179e565b5b50565b60008190506117ef826117cd565b919050565b60006117ff826117e1565b9050919050565b61180f816117f4565b82525050565b60008115159050919050565b61182a81611815565b82525050565b600281106118415761184061179e565b5b50565b600081905061185282611830565b919050565b600061186282611844565b9050919050565b61187281611857565b82525050565b6000610160820190508181036000830152611893818e611715565b905081810360208301526118a7818d611715565b90506118b6604083018c611780565b6118c3606083018b61178f565b6118d0608083018a61178f565b6118dd60a083018961178f565b6118ea60c0830188611806565b6118f760e0830187611821565b611905610100830186611869565b611913610120830185611821565b8181036101408301526119268184611715565b90509c9b505050505050505050505050565b6119418161176e565b811461194c57600080fd5b50565b60008135905061195e81611938565b92915050565b6000806040838503121561197b5761197a611651565b5b60006119898582860161167c565b925050602061199a8582860161194f565b9150509250929050565b60006020820190506119b9600083018461178f565b92915050565b600080fd5b600080fd5b7f4e487b7100000000000000000000000000000000000000000000000000000000600052604160045260246000fd5b611a0182611704565b810181811067ffffffffffffffff82111715611a2057611a1f6119c9565b5b80604052505050565b6000611a33611647565b9050611a3f82826119f8565b919050565b600067ffffffffffffffff821115611a5f57611a5e6119c9565b5b611a6882611704565b9050602081019050919050565b82818337600083830152505050565b6000611a97611a9284611a44565b611a29565b905082815260208101848484011115611ab357611ab26119c4565b5b611abe848285611a75565b509392505050565b600082601f830112611adb57611ada6119bf565b5b8135611aeb848260208601611a84565b91505092915050565b60088110611b0157600080fd5b50565b600081359050611b1381611af4565b92915050565b60008060008060008060c08789031215611b3657611b35611651565b5b600087013567ffffffffffffffff811115611b5457611b53611656565b5b611b6089828a01611ac6565b965050602087013567ffffffffffffffff811115611b8157611b80611656565b5b611b8d89828a01611ac6565b9550506040611b9e89828a0161167c565b9450506060611baf89828a0161167c565b9350506080611bc089828a01611b04565b92505060a087013567ffffffffffffffff811115611be157611be0611656565b5b611bed89828a01611ac6565b9150509295509295509295565b600060208284031215611c1057611c0f611651565b5b6000611c1e8482850161194f565b91505092915050565b600081519050919050565b600082825260208201905092915050565b6000819050602082019050919050565b611c5c8161165b565b82525050565b6000611c6e8383611c53565b60208301905092915050565b6000602082019050919050565b6000611c9282611c27565b611c9c8185611c32565b9350611ca783611c43565b8060005b83811015611cd8578151611cbf8882611c62565b9750611cca83611c7a565b925050600181019050611cab565b5085935050505092915050565b60006020820190508181036000830152611cff8184611c87565b905092915050565b6000610120820190508181036000830152611d22818c611715565b90508181036020830152611d36818b611715565b9050611d45604083018a611780565b611d52606083018961178f565b611d5f608083018861178f565b611d6c60a083018761178f565b611d7960c0830186611806565b611d8660e0830185611821565b818103610100830152611d998184611715565b90509a9950505050505050505050565b600081519050919050565b600082825260208201905092915050565b6000819050602082019050919050565b600082825260208201905092915050565b6000611df1826116be565b611dfb8185611dd5565b9350611e0b8185602086016116da565b611e1481611704565b840191505092915050565b6000611e2b8383611de6565b905092915050565b6000602082019050919050565b6000611e4b82611da9565b611e558185611db4565b935083602082028501611e6785611dc5565b8060005b85811015611ea35784840389528151611e848582611e1f565b9450611e8f83611e33565b925060208a01995050600181019050611e6b565b50829750879550505050505092915050565b60006020820190508181036000830152611ecf8184611e40565b905092915050565b7f4e487b7100000000000000000000000000000000000000000000000000000000600052602260045260246000fd5b60006002820490506001821680611f1e57607f821691505b602082108103611f3157611f30611ed7565b5b50919050565b7f496e76616c69642050726f6a6563742049640000000000000000000000000000600082015250565b6000611f6d6012836116c9565b9150611f7882611f37565b602082019050919050565b60006020820190508181036000830152611f9c81611f60565b9050919050565b7f4e487b7100000000000000000000000000000000000000000000000000000000600052603260045260246000fd5b7f596f7520617265206e6f742050726f6a656374204f776e657200000000000000600082015250565b60006120086019836116c9565b915061201382611fd2565b602082019050919050565b6000602082019050818103600083015261203781611ffb565b9050919050565b7f43616d706169676e2046756e64696e672054696d65204e6f742045787069726560008201527f6400000000000000000000000000000000000000000000000000000000000000602082015250565b600061209a6021836116c9565b91506120a58261203e565b604082019050919050565b600060208201905081810360008301526120c98161208d565b9050919050565b7f46756e64696e6720676f616c206e6f7420726561636865640000000000000000600082015250565b60006121066018836116c9565b9150612111826120d0565b602082019050919050565b60006020820190508181036000830152612135816120f9565b9050919050565b7f416c726561647920636c61696d6564207261697365642066756e647300000000600082015250565b6000612172601c836116c9565b915061217d8261213c565b602082019050919050565b600060208201905081810360008301526121a181612165565b9050919050565b7f476f616c206d7573742062652067726561746572207468616e20300000000000600082015250565b60006121de601b836116c9565b91506121e9826121a8565b602082019050919050565b6000602082019050818103600083015261220d816121d1565b9050919050565b7f4e487b7100000000000000000000000000000000000000000000000000000000600052601160045260246000fd5b600061224e8261165b565b91506122598361165b565b925082820190508082111561227157612270612214565b5b92915050565b60008190508160005260206000209050919050565b60006020601f8301049050919050565b600082821b905092915050565b6000600883026122d97fffffffffffffffffffffffffffffffffffffffffffffffffffffffffffffffff8261229c565b6122e3868361229c565b95508019841693508086168417925050509392505050565b6000819050919050565b600061232061231b6123168461165b565b6122fb565b61165b565b9050919050565b6000819050919050565b61233a83612305565b61234e61234682612327565b8484546122a9565b825550505050565b600090565b612363612356565b61236e818484612331565b505050565b5b818110156123925761238760008261235b565b600181019050612374565b5050565b601f8211156123d7576123a881612277565b6123b18461228c565b810160208510156123c0578190505b6123d46123cc8561228c565b830182612373565b50505b505050565b600082821c905092915050565b60006123fa600019846008026123dc565b1980831691505092915050565b600061241383836123e9565b9150826002028217905092915050565b61242c826116be565b67ffffffffffffffff811115612445576124446119c9565b5b61244f8254611f06565b61245a828285612396565b600060209050601f83116001811461248d576000841561247b578287015190505b6124858582612407565b8655506124ed565b601f19841661249b86612277565b60005b828110156124c35784890151825560018201915060208501945060208101905061249e565b868310156124e057848901516124dc601f8916826123e9565b8355505b6001600288020188555050505b505050505050565b60006125008261165b565b915061250b8361165b565b925082820390508181111561252357612522612214565b5b92915050565b7f496e76616c69642063616d706169676e20696e64657800000000000000000000600082015250565b600061255f6016836116c9565b915061256a82612529565b602082019050919050565b6000602082019050818103600083015261258e81612552565b9050919050565b7f43616d706169676e20697320616c726561647920636c6f736564000000000000600082015250565b60006125cb601a836116c9565b91506125d682612595565b602082019050919050565b600060208201905081810360008301526125fa816125be565b9050919050565b7f43616d706169676e20686173206e6f7420656e64656420796574000000000000600082015250565b6000612637601a836116c9565b915061264282612601565b602082019050919050565b600060208201905081810360008301526126668161262a565b9050919050565b7f43616d706169676e20697320636c6f7365640000000000000000000000000000600082015250565b60006126a36012836116c9565b91506126ae8261266d565b602082019050919050565b600060208201905081810360008301526126d281612696565b9050919050565b7f596f7520617265207468652043616d706169676e206f776e6572000000000000600082015250565b600061270f601a836116c9565b915061271a826126d9565b602082019050919050565b6000602082019050818103600083015261273e81612702565b9050919050565b7f43616d706169676e2068617320656e6465640000000000000000000000000000600082015250565b600061277b6012836116c9565b915061278682612745565b602082019050919050565b600060208201905081810360008301526127aa8161276e565b9050919050565b7f436f6e747269627574696f6e206d75737420626520677265617465722074686160008201527f6e20300000000000000000000000000000000000000000000000000000000000602082015250565b600061280d6023836116c9565b9150612818826127b1565b604082019050919050565b6000602082019050818103600083015261283c81612800565b905091905056fea2646970667358221220ce72b603572889f846ff8688918296e844d9992bb81d20ab627104d9cf66ea1464736f6c63430008130033",
  "linkReferences": {},
  "deployedLinkReferences": {}
}