{
  "_format": "hh-sol-artifact-1",
  "contractName": "Crowdr",
  "sourceName": "contracts/Crowdr.sol",
  "abi": [
    {
      "inputs": [
        {
          "internalType": "uint256",
          "name": "",
          "type": "uint256"
        }
      ],
      "name": "campaigns",
      "outputs": [
        {
          "internalType": "string",
          "name": "title",
          "type": "string"
        },
        {
          "internalType": "string",
          "name": "description",
          "type": "string"
        },
        {
          "internalType": "address",
          "name": "creator",
          "type": "address"
        },
        {
          "internalType": "uint256",
          "name": "goal",
          "type": "uint256"
        },
        {
          "internalType": "uint256",
          "name": "endTime",
          "type": "uint256"
        },
        {
          "internalType": "uint256",
          "name": "totalFunds",
          "type": "uint256"
        },
        {
          "internalType": "enum Crowdr.Category",
          "name": "category",
          "type": "uint8"
        },
        {
          "internalType": "bool",
          "name": "isOpen",
          "type": "bool"
        },
        {
          "internalType": "enum Crowdr.RefundPolicy",
          "name": "refundPolicy",
          "type": "uint8"
        },
        {
          "internalType": "bool",
          "name": "claimedAmount",
          "type": "bool"
        }
      ],
      "stateMutability": "view",
      "type": "function"
    },
    {
      "inputs": [
        {
          "internalType": "uint256",
          "name": "_index",
          "type": "uint256"
        }
      ],
      "name": "claimFund",
      "outputs": [],
      "stateMutability": "nonpayable",
      "type": "function"
    },
    {
      "inputs": [
        {
          "internalType": "uint256",
          "name": "_campaignIndex",
          "type": "uint256"
        }
      ],
      "name": "closeCampaign",
      "outputs": [],
      "stateMutability": "nonpayable",
      "type": "function"
    },
    {
      "inputs": [
        {
          "internalType": "uint256",
          "name": "_campaignIndex",
          "type": "uint256"
        }
      ],
      "name": "contribute",
      "outputs": [],
      "stateMutability": "payable",
      "type": "function"
    },
    {
      "inputs": [
        {
          "internalType": "uint256",
          "name": "",
          "type": "uint256"
        },
        {
          "internalType": "address",
          "name": "",
          "type": "address"
        }
      ],
      "name": "contributions",
      "outputs": [
        {
          "internalType": "uint256",
          "name": "",
          "type": "uint256"
        }
      ],
      "stateMutability": "view",
      "type": "function"
    },
    {
      "inputs": [
        {
          "internalType": "string",
          "name": "_title",
          "type": "string"
        },
        {
          "internalType": "string",
          "name": "_description",
          "type": "string"
        },
        {
          "internalType": "uint256",
          "name": "_goal",
          "type": "uint256"
        },
        {
          "internalType": "uint256",
          "name": "_duration",
          "type": "uint256"
        },
        {
          "internalType": "enum Crowdr.Category",
          "name": "_category",
          "type": "uint8"
        },
        {
          "internalType": "enum Crowdr.RefundPolicy",
          "name": "_refundPolicy",
          "type": "uint8"
        }
      ],
      "name": "createCampaign",
      "outputs": [],
      "stateMutability": "nonpayable",
      "type": "function"
    },
    {
      "inputs": [
        {
          "internalType": "uint256",
          "name": "_campaignIndex",
          "type": "uint256"
        }
      ],
      "name": "getCampaignDetails",
      "outputs": [
        {
          "internalType": "string",
          "name": "title",
          "type": "string"
        },
        {
          "internalType": "string",
          "name": "description",
          "type": "string"
        },
        {
          "internalType": "address",
          "name": "creator",
          "type": "address"
        },
        {
          "internalType": "uint256",
          "name": "goal",
          "type": "uint256"
        },
        {
          "internalType": "uint256",
          "name": "endTime",
          "type": "uint256"
        },
        {
          "internalType": "uint256",
          "name": "totalFunds",
          "type": "uint256"
        },
        {
          "internalType": "enum Crowdr.Category",
          "name": "category",
          "type": "uint8"
        },
        {
          "internalType": "bool",
          "name": "isOpen",
          "type": "bool"
        }
      ],
      "stateMutability": "view",
      "type": "function"
    },
    {
      "inputs": [],
      "name": "getCampaignsLength",
      "outputs": [
        {
          "internalType": "uint256",
          "name": "",
          "type": "uint256"
        }
      ],
      "stateMutability": "view",
      "type": "function"
    },
    {
      "inputs": [
        {
          "internalType": "address",
          "name": "creator",
          "type": "address"
        }
      ],
      "name": "getCreatorCampaigns",
      "outputs": [
        {
          "internalType": "uint256[]",
          "name": "createdCampaigns",
          "type": "uint256[]"
        }
      ],
      "stateMutability": "view",
      "type": "function"
    }
  ],
  "bytecode": "0x608060405234801561001057600080fd5b506121ff806100206000396000f3fe6080604052600436106100865760003560e01c806376edca3d1161005957806376edca3d14610160578063b0e1c1e11461019d578063c1cbbca7146101c6578063d993de62146101e2578063fb5474ae1461022657610086565b8063141961bc1461008b57806331c7364f146100d15780633d891f59146100fa57806359195c2b14610137575b600080fd5b34801561009757600080fd5b506100b260048036038101906100ad9190611168565b610251565b6040516100c89a9998979695949392919061134f565b60405180910390f35b3480156100dd57600080fd5b506100f860048036038101906100f39190611168565b610419565b005b34801561010657600080fd5b50610121600480360381019061011c9190611425565b610789565b60405161012e9190611465565b60405180910390f35b34801561014357600080fd5b5061015e600480360381019061015991906115ff565b6107ae565b005b34801561016c57600080fd5b50610187600480360381019061018291906116c4565b610a68565b60405161019491906117af565b60405180910390f35b3480156101a957600080fd5b506101c460048036038101906101bf9190611168565b610aff565b005b6101e060048036038101906101db9190611168565b610ca4565b005b3480156101ee57600080fd5b5061020960048036038101906102049190611168565b610f04565b60405161021d9897969594939291906117d1565b60405180910390f35b34801561023257600080fd5b5061023b611111565b6040516102489190611465565b60405180910390f35b6002818154811061026157600080fd5b90600052602060002090600702016000915090508060000180546102849061188c565b80601f01602080910402602001604051908101604052809291908181526020018280546102b09061188c565b80156102fd5780601f106102d2576101008083540402835291602001916102fd565b820191906000526020600020905b8154815290600101906020018083116102e057829003601f168201915b5050505050908060010180546103129061188c565b80601f016020809104026020016040519081016040528092919081815260200182805461033e9061188c565b801561038b5780601f106103605761010080835404028352916020019161038b565b820191906000526020600020905b81548152906001019060200180831161036e57829003601f168201915b5050505050908060020160009054906101000a900473ffffffffffffffffffffffffffffffffffffffff16908060030154908060040154908060050154908060060160009054906101000a900460ff16908060060160019054906101000a900460ff16908060060160029054906101000a900460ff16908060060160039054906101000a900460ff1690508a565b806002805490508110610461576040517f08c379a000000000000000000000000000000000000000000000000000000000815260040161045890611909565b60405180910390fd5b3373ffffffffffffffffffffffffffffffffffffffff166002838154811061048c5761048b611929565b5b906000526020600020906007020160020160009054906101000a900473ffffffffffffffffffffffffffffffffffffffff1673ffffffffffffffffffffffffffffffffffffffff1614610514576040517f08c379a000000000000000000000000000000000000000000000000000000000815260040161050b906119a4565b60405180910390fd5b426002838154811061052957610528611929565b5b9060005260206000209060070201600401541061057b576040517f08c379a000000000000000000000000000000000000000000000000000000000815260040161057290611a36565b60405180910390fd5b60018081111561058e5761058d611275565b5b600283815481106105a2576105a1611929565b5b906000526020600020906007020160060160029054906101000a900460ff1660018111156105d3576105d2611275565b5b14806106295750600282815481106105ee576105ed611929565b5b9060005260206000209060070201600301546002838154811061061457610613611929565b5b90600052602060002090600702016005015410155b610668576040517f08c379a000000000000000000000000000000000000000000000000000000000815260040161065f90611aa2565b60405180910390fd5b6002828154811061067c5761067b611929565b5b906000526020600020906007020160060160039054906101000a900460ff16156106db576040517f08c379a00000000000000000000000000000000000000000000000000000000081526004016106d290611b0e565b60405180910390fd5b6001600283815481106106f1576106f0611929565b5b906000526020600020906007020160060160036101000a81548160ff0219169083151502179055503373ffffffffffffffffffffffffffffffffffffffff166108fc6002848154811061074757610746611929565b5b9060005260206000209060070201600501549081150290604051600060405180830381858888f19350505050158015610784573d6000803e3d6000fd5b505050565b6000602052816000526040600020602052806000526040600020600091509150505481565b600084116107f1576040517f08c379a00000000000000000000000000000000000000000000000000000000081526004016107e890611b7a565b60405180910390fd5b60006040518061014001604052808881526020018781526020013373ffffffffffffffffffffffffffffffffffffffff16815260200186815260200185426108399190611bc9565b81526020016000815260200184600381111561085857610857611275565b5b815260200160011515815260200183600181111561087957610878611275565b5b8152602001600015158152509050600281908060018154018082558091505060019003906000526020600020906007020160009091909190915060008201518160000190816108c89190611da9565b5060208201518160010190816108de9190611da9565b5060408201518160020160006101000a81548173ffffffffffffffffffffffffffffffffffffffff021916908373ffffffffffffffffffffffffffffffffffffffff160217905550606082015181600301556080820151816004015560a0820151816005015560c08201518160060160006101000a81548160ff0219169083600381111561096f5761096e611275565b5b021790555060e08201518160060160016101000a81548160ff0219169083151502179055506101008201518160060160026101000a81548160ff021916908360018111156109c0576109bf611275565b5b02179055506101208201518160060160036101000a81548160ff0219169083151502179055505050600160003373ffffffffffffffffffffffffffffffffffffffff1673ffffffffffffffffffffffffffffffffffffffff1681526020019081526020016000206001600280549050610a399190611e7b565b908060018154018082558091505060019003906000526020600020016000909190919091505550505050505050565b6060600160008373ffffffffffffffffffffffffffffffffffffffff1673ffffffffffffffffffffffffffffffffffffffff168152602001908152602001600020805480602002602001604051908101604052809291908181526020018280548015610af357602002820191906000526020600020905b815481526020019060010190808311610adf575b50505050509050919050565b6002805490508110610b46576040517f08c379a0000000000000000000000000000000000000000000000000000000008152600401610b3d90611efb565b60405180910390fd5b600060028281548110610b5c57610b5b611929565b5b906000526020600020906007020190508060060160019054906101000a900460ff16610bbd576040517f08c379a0000000000000000000000000000000000000000000000000000000008152600401610bb490611f67565b60405180910390fd5b8060040154421015610c04576040517f08c379a0000000000000000000000000000000000000000000000000000000008152600401610bfb90611fd3565b60405180910390fd5b8060030154816005015410610c83578060020160009054906101000a900473ffffffffffffffffffffffffffffffffffffffff1673ffffffffffffffffffffffffffffffffffffffff166108fc82600501549081150290604051600060405180830381858888f19350505050158015610c81573d6000803e3d6000fd5b505b60008160060160016101000a81548160ff0219169083151502179055505050565b806002805490508110610cec576040517f08c379a0000000000000000000000000000000000000000000000000000000008152600401610ce390611909565b60405180910390fd5b600060028381548110610d0257610d01611929565b5b906000526020600020906007020190508060060160019054906101000a900460ff16610d63576040517f08c379a0000000000000000000000000000000000000000000000000000000008152600401610d5a9061203f565b60405180910390fd5b3373ffffffffffffffffffffffffffffffffffffffff168160020160009054906101000a900473ffffffffffffffffffffffffffffffffffffffff1673ffffffffffffffffffffffffffffffffffffffff1603610df5576040517f08c379a0000000000000000000000000000000000000000000000000000000008152600401610dec906120ab565b60405180910390fd5b80600401544210610e3b576040517f08c379a0000000000000000000000000000000000000000000000000000000008152600401610e3290612117565b60405180910390fd5b60003411610e7e576040517f08c379a0000000000000000000000000000000000000000000000000000000008152600401610e75906121a9565b60405180910390fd5b3460008085815260200190815260200160002060003373ffffffffffffffffffffffffffffffffffffffff1673ffffffffffffffffffffffffffffffffffffffff1681526020019081526020016000206000828254610edd9190611bc9565b9250508190555034816005016000828254610ef89190611bc9565b92505081905550505050565b6060806000806000806000806002805490508910610f57576040517f08c379a0000000000000000000000000000000000000000000000000000000008152600401610f4e90611efb565b60405180910390fd5b600060028a81548110610f6d57610f6c611929565b5b9060005260206000209060070201905080600001816001018260020160009054906101000a900473ffffffffffffffffffffffffffffffffffffffff168360030154846004015485600501548660060160009054906101000a900460ff168760060160019054906101000a900460ff16878054610fe99061188c565b80601f01602080910402602001604051908101604052809291908181526020018280546110159061188c565b80156110625780601f1061103757610100808354040283529160200191611062565b820191906000526020600020905b81548152906001019060200180831161104557829003601f168201915b505050505097508680546110759061188c565b80601f01602080910402602001604051908101604052809291908181526020018280546110a19061188c565b80156110ee5780601f106110c3576101008083540402835291602001916110ee565b820191906000526020600020905b8154815290600101906020018083116110d157829003601f168201915b505050505096509850985098509850985098509850985050919395975091939597565b6000600280549050905090565b6000604051905090565b600080fd5b600080fd5b6000819050919050565b61114581611132565b811461115057600080fd5b50565b6000813590506111628161113c565b92915050565b60006020828403121561117e5761117d611128565b5b600061118c84828501611153565b91505092915050565b600081519050919050565b600082825260208201905092915050565b60005b838110156111cf5780820151818401526020810190506111b4565b60008484015250505050565b6000601f19601f8301169050919050565b60006111f782611195565b61120181856111a0565b93506112118185602086016111b1565b61121a816111db565b840191505092915050565b600073ffffffffffffffffffffffffffffffffffffffff82169050919050565b600061125082611225565b9050919050565b61126081611245565b82525050565b61126f81611132565b82525050565b7f4e487b7100000000000000000000000000000000000000000000000000000000600052602160045260246000fd5b600481106112b5576112b4611275565b5b50565b60008190506112c6826112a4565b919050565b60006112d6826112b8565b9050919050565b6112e6816112cb565b82525050565b60008115159050919050565b611301816112ec565b82525050565b6002811061131857611317611275565b5b50565b600081905061132982611307565b919050565b60006113398261131b565b9050919050565b6113498161132e565b82525050565b600061014082019050818103600083015261136a818d6111ec565b9050818103602083015261137e818c6111ec565b905061138d604083018b611257565b61139a606083018a611266565b6113a76080830189611266565b6113b460a0830188611266565b6113c160c08301876112dd565b6113ce60e08301866112f8565b6113dc610100830185611340565b6113ea6101208301846112f8565b9b9a5050505050505050505050565b61140281611245565b811461140d57600080fd5b50565b60008135905061141f816113f9565b92915050565b6000806040838503121561143c5761143b611128565b5b600061144a85828601611153565b925050602061145b85828601611410565b9150509250929050565b600060208201905061147a6000830184611266565b92915050565b600080fd5b600080fd5b7f4e487b7100000000000000000000000000000000000000000000000000000000600052604160045260246000fd5b6114c2826111db565b810181811067ffffffffffffffff821117156114e1576114e061148a565b5b80604052505050565b60006114f461111e565b905061150082826114b9565b919050565b600067ffffffffffffffff8211156115205761151f61148a565b5b611529826111db565b9050602081019050919050565b82818337600083830152505050565b600061155861155384611505565b6114ea565b90508281526020810184848401111561157457611573611485565b5b61157f848285611536565b509392505050565b600082601f83011261159c5761159b611480565b5b81356115ac848260208601611545565b91505092915050565b600481106115c257600080fd5b50565b6000813590506115d4816115b5565b92915050565b600281106115e757600080fd5b50565b6000813590506115f9816115da565b92915050565b60008060008060008060c0878903121561161c5761161b611128565b5b600087013567ffffffffffffffff81111561163a5761163961112d565b5b61164689828a01611587565b965050602087013567ffffffffffffffff8111156116675761166661112d565b5b61167389828a01611587565b955050604061168489828a01611153565b945050606061169589828a01611153565b93505060806116a689828a016115c5565b92505060a06116b789828a016115ea565b9150509295509295509295565b6000602082840312156116da576116d9611128565b5b60006116e884828501611410565b91505092915050565b600081519050919050565b600082825260208201905092915050565b6000819050602082019050919050565b61172681611132565b82525050565b6000611738838361171d565b60208301905092915050565b6000602082019050919050565b600061175c826116f1565b61176681856116fc565b93506117718361170d565b8060005b838110156117a2578151611789888261172c565b975061179483611744565b925050600181019050611775565b5085935050505092915050565b600060208201905081810360008301526117c98184611751565b905092915050565b60006101008201905081810360008301526117ec818b6111ec565b90508181036020830152611800818a6111ec565b905061180f6040830189611257565b61181c6060830188611266565b6118296080830187611266565b61183660a0830186611266565b61184360c08301856112dd565b61185060e08301846112f8565b9998505050505050505050565b7f4e487b7100000000000000000000000000000000000000000000000000000000600052602260045260246000fd5b600060028204905060018216806118a457607f821691505b6020821081036118b7576118b661185d565b5b50919050565b7f496e76616c69642050726f6a6563742049640000000000000000000000000000600082015250565b60006118f36012836111a0565b91506118fe826118bd565b602082019050919050565b60006020820190508181036000830152611922816118e6565b9050919050565b7f4e487b7100000000000000000000000000000000000000000000000000000000600052603260045260246000fd5b7f596f7520617265206e6f742050726f6a656374204f776e657200000000000000600082015250565b600061198e6019836111a0565b915061199982611958565b602082019050919050565b600060208201905081810360008301526119bd81611981565b9050919050565b7f43616d706169676e2046756e64696e672054696d65204e6f742045787069726560008201527f6400000000000000000000000000000000000000000000000000000000000000602082015250565b6000611a206021836111a0565b9150611a2b826119c4565b604082019050919050565b60006020820190508181036000830152611a4f81611a13565b9050919050565b7f46756e64696e6720676f616c206e6f7420726561636865640000000000000000600082015250565b6000611a8c6018836111a0565b9150611a9782611a56565b602082019050919050565b60006020820190508181036000830152611abb81611a7f565b9050919050565b7f416c726561647920636c61696d6564207261697365642066756e647300000000600082015250565b6000611af8601c836111a0565b9150611b0382611ac2565b602082019050919050565b60006020820190508181036000830152611b2781611aeb565b9050919050565b7f476f616c206d7573742062652067726561746572207468616e20300000000000600082015250565b6000611b64601b836111a0565b9150611b6f82611b2e565b602082019050919050565b60006020820190508181036000830152611b9381611b57565b9050919050565b7f4e487b7100000000000000000000000000000000000000000000000000000000600052601160045260246000fd5b6000611bd482611132565b9150611bdf83611132565b9250828201905080821115611bf757611bf6611b9a565b5b92915050565b60008190508160005260206000209050919050565b60006020601f8301049050919050565b600082821b905092915050565b600060088302611c5f7fffffffffffffffffffffffffffffffffffffffffffffffffffffffffffffffff82611c22565b611c698683611c22565b95508019841693508086168417925050509392505050565b6000819050919050565b6000611ca6611ca1611c9c84611132565b611c81565b611132565b9050919050565b6000819050919050565b611cc083611c8b565b611cd4611ccc82611cad565b848454611c2f565b825550505050565b600090565b611ce9611cdc565b611cf4818484611cb7565b505050565b5b81811015611d1857611d0d600082611ce1565b600181019050611cfa565b5050565b601f821115611d5d57611d2e81611bfd565b611d3784611c12565b81016020851015611d46578190505b611d5a611d5285611c12565b830182611cf9565b50505b505050565b600082821c905092915050565b6000611d8060001984600802611d62565b1980831691505092915050565b6000611d998383611d6f565b9150826002028217905092915050565b611db282611195565b67ffffffffffffffff811115611dcb57611dca61148a565b5b611dd5825461188c565b611de0828285611d1c565b600060209050601f831160018114611e135760008415611e01578287015190505b611e0b8582611d8d565b865550611e73565b601f198416611e2186611bfd565b60005b82811015611e4957848901518255600182019150602085019450602081019050611e24565b86831015611e665784890151611e62601f891682611d6f565b8355505b6001600288020188555050505b505050505050565b6000611e8682611132565b9150611e9183611132565b9250828203905081811115611ea957611ea8611b9a565b5b92915050565b7f496e76616c69642063616d706169676e20696e64657800000000000000000000600082015250565b6000611ee56016836111a0565b9150611ef082611eaf565b602082019050919050565b60006020820190508181036000830152611f1481611ed8565b9050919050565b7f43616d706169676e20697320616c726561647920636c6f736564000000000000600082015250565b6000611f51601a836111a0565b9150611f5c82611f1b565b602082019050919050565b60006020820190508181036000830152611f8081611f44565b9050919050565b7f43616d706169676e20686173206e6f7420656e64656420796574000000000000600082015250565b6000611fbd601a836111a0565b9150611fc882611f87565b602082019050919050565b60006020820190508181036000830152611fec81611fb0565b9050919050565b7f43616d706169676e20697320636c6f7365640000000000000000000000000000600082015250565b60006120296012836111a0565b915061203482611ff3565b602082019050919050565b600060208201905081810360008301526120588161201c565b9050919050565b7f596f7520617265207468652043616d706169676e206f776e6572000000000000600082015250565b6000612095601a836111a0565b91506120a08261205f565b602082019050919050565b600060208201905081810360008301526120c481612088565b9050919050565b7f43616d706169676e2068617320656e6465640000000000000000000000000000600082015250565b60006121016012836111a0565b915061210c826120cb565b602082019050919050565b60006020820190508181036000830152612130816120f4565b9050919050565b7f436f6e747269627574696f6e206d75737420626520677265617465722074686160008201527f6e20300000000000000000000000000000000000000000000000000000000000602082015250565b60006121936023836111a0565b915061219e82612137565b604082019050919050565b600060208201905081810360008301526121c281612186565b905091905056fea2646970667358221220f8f12df97ca148c8c359b564d4d5796c7a39c8f96c39c75734746facf8f74fdd64736f6c63430008130033",
  "linkReferences": {},
  "deployedLinkReferences": {}
}