{
  "_format": "hh-sol-artifact-1",
  "contractName": "Crowdr",
  "sourceName": "contracts/Crowdr.sol",
  "abi": [
    {
      "inputs": [
        {
          "internalType": "uint256",
          "name": "",
          "type": "uint256"
        }
      ],
      "name": "campaigns",
      "outputs": [
        {
          "internalType": "string",
          "name": "title",
          "type": "string"
        },
        {
          "internalType": "string",
          "name": "description",
          "type": "string"
        },
        {
          "internalType": "address",
          "name": "creator",
          "type": "address"
        },
        {
          "internalType": "uint256",
          "name": "goal",
          "type": "uint256"
        },
        {
          "internalType": "uint256",
          "name": "endTime",
          "type": "uint256"
        },
        {
          "internalType": "uint256",
          "name": "totalFunds",
          "type": "uint256"
        },
        {
          "internalType": "enum Crowdr.Category",
          "name": "category",
          "type": "uint8"
        },
        {
          "internalType": "bool",
          "name": "isOpen",
          "type": "bool"
        },
        {
          "internalType": "enum Crowdr.RefundPolicy",
          "name": "refundPolicy",
          "type": "uint8"
        },
        {
          "internalType": "bool",
          "name": "claimedAmount",
          "type": "bool"
        }
      ],
      "stateMutability": "view",
      "type": "function"
    },
    {
      "inputs": [
        {
          "internalType": "uint256",
          "name": "_index",
          "type": "uint256"
        }
      ],
      "name": "claimFund",
      "outputs": [],
      "stateMutability": "nonpayable",
      "type": "function"
    },
    {
      "inputs": [
        {
          "internalType": "uint256",
          "name": "_campaignIndex",
          "type": "uint256"
        }
      ],
      "name": "closeCampaign",
      "outputs": [],
      "stateMutability": "nonpayable",
      "type": "function"
    },
    {
      "inputs": [
        {
          "internalType": "uint256",
          "name": "_campaignIndex",
          "type": "uint256"
        }
      ],
      "name": "contribute",
      "outputs": [],
      "stateMutability": "payable",
      "type": "function"
    },
    {
      "inputs": [
        {
          "internalType": "uint256",
          "name": "",
          "type": "uint256"
        },
        {
          "internalType": "address",
          "name": "",
          "type": "address"
        }
      ],
      "name": "contributions",
      "outputs": [
        {
          "internalType": "uint256",
          "name": "",
          "type": "uint256"
        }
      ],
      "stateMutability": "view",
      "type": "function"
    },
    {
      "inputs": [
        {
          "internalType": "string",
          "name": "_title",
          "type": "string"
        },
        {
          "internalType": "string",
          "name": "_description",
          "type": "string"
        },
        {
          "internalType": "uint256",
          "name": "_goal",
          "type": "uint256"
        },
        {
          "internalType": "uint256",
          "name": "_duration",
          "type": "uint256"
        },
        {
          "internalType": "enum Crowdr.Category",
          "name": "_category",
          "type": "uint8"
        },
        {
          "internalType": "enum Crowdr.RefundPolicy",
          "name": "_refundPolicy",
          "type": "uint8"
        }
      ],
      "name": "createCampaign",
      "outputs": [],
      "stateMutability": "nonpayable",
      "type": "function"
    },
    {
      "inputs": [],
      "name": "getAllCategories",
      "outputs": [
        {
          "internalType": "string[]",
          "name": "",
          "type": "string[]"
        }
      ],
      "stateMutability": "pure",
      "type": "function"
    },
    {
      "inputs": [
        {
          "internalType": "uint256",
          "name": "_campaignIndex",
          "type": "uint256"
        }
      ],
      "name": "getCampaignDetails",
      "outputs": [
        {
          "internalType": "string",
          "name": "title",
          "type": "string"
        },
        {
          "internalType": "string",
          "name": "description",
          "type": "string"
        },
        {
          "internalType": "address",
          "name": "creator",
          "type": "address"
        },
        {
          "internalType": "uint256",
          "name": "goal",
          "type": "uint256"
        },
        {
          "internalType": "uint256",
          "name": "endTime",
          "type": "uint256"
        },
        {
          "internalType": "uint256",
          "name": "totalFunds",
          "type": "uint256"
        },
        {
          "internalType": "enum Crowdr.Category",
          "name": "category",
          "type": "uint8"
        },
        {
          "internalType": "bool",
          "name": "isOpen",
          "type": "bool"
        }
      ],
      "stateMutability": "view",
      "type": "function"
    },
    {
      "inputs": [],
      "name": "getCampaignsLength",
      "outputs": [
        {
          "internalType": "uint256",
          "name": "",
          "type": "uint256"
        }
      ],
      "stateMutability": "view",
      "type": "function"
    },
    {
      "inputs": [
        {
          "internalType": "address",
          "name": "creator",
          "type": "address"
        }
      ],
      "name": "getCreatorCampaigns",
      "outputs": [
        {
          "internalType": "uint256[]",
          "name": "createdCampaigns",
          "type": "uint256[]"
        }
      ],
      "stateMutability": "view",
      "type": "function"
    }
  ],
  "bytecode": "0x608060405234801561001057600080fd5b50612713806100206000396000f3fe6080604052600436106100915760003560e01c8063b0e1c1e111610059578063b0e1c1e1146101a8578063c1cbbca7146101d1578063d993de62146101ed578063dadd0a5714610231578063fb5474ae1461025c57610091565b8063141961bc1461009657806331c7364f146100dc5780633d891f591461010557806359195c2b1461014257806376edca3d1461016b575b600080fd5b3480156100a257600080fd5b506100bd60048036038101906100b8919061154e565b610287565b6040516100d39a99989796959493929190611735565b60405180910390f35b3480156100e857600080fd5b5061010360048036038101906100fe919061154e565b61044f565b005b34801561011157600080fd5b5061012c6004803603810190610127919061180b565b6107bf565b604051610139919061184b565b60405180910390f35b34801561014e57600080fd5b50610169600480360381019061016491906119e5565b6107e4565b005b34801561017757600080fd5b50610192600480360381019061018d9190611aaa565b610a9e565b60405161019f9190611b95565b60405180910390f35b3480156101b457600080fd5b506101cf60048036038101906101ca919061154e565b610b35565b005b6101eb60048036038101906101e6919061154e565b610cda565b005b3480156101f957600080fd5b50610214600480360381019061020f919061154e565b610f3a565b604051610228989796959493929190611bb7565b60405180910390f35b34801561023d57600080fd5b50610246611147565b6040516102539190611d4f565b60405180910390f35b34801561026857600080fd5b506102716114f7565b60405161027e919061184b565b60405180910390f35b6002818154811061029757600080fd5b90600052602060002090600702016000915090508060000180546102ba90611da0565b80601f01602080910402602001604051908101604052809291908181526020018280546102e690611da0565b80156103335780601f1061030857610100808354040283529160200191610333565b820191906000526020600020905b81548152906001019060200180831161031657829003601f168201915b50505050509080600101805461034890611da0565b80601f016020809104026020016040519081016040528092919081815260200182805461037490611da0565b80156103c15780601f10610396576101008083540402835291602001916103c1565b820191906000526020600020905b8154815290600101906020018083116103a457829003601f168201915b5050505050908060020160009054906101000a900473ffffffffffffffffffffffffffffffffffffffff16908060030154908060040154908060050154908060060160009054906101000a900460ff16908060060160019054906101000a900460ff16908060060160029054906101000a900460ff16908060060160039054906101000a900460ff1690508a565b806002805490508110610497576040517f08c379a000000000000000000000000000000000000000000000000000000000815260040161048e90611e1d565b60405180910390fd5b3373ffffffffffffffffffffffffffffffffffffffff16600283815481106104c2576104c1611e3d565b5b906000526020600020906007020160020160009054906101000a900473ffffffffffffffffffffffffffffffffffffffff1673ffffffffffffffffffffffffffffffffffffffff161461054a576040517f08c379a000000000000000000000000000000000000000000000000000000000815260040161054190611eb8565b60405180910390fd5b426002838154811061055f5761055e611e3d565b5b906000526020600020906007020160040154106105b1576040517f08c379a00000000000000000000000000000000000000000000000000000000081526004016105a890611f4a565b60405180910390fd5b6001808111156105c4576105c361165b565b5b600283815481106105d8576105d7611e3d565b5b906000526020600020906007020160060160029054906101000a900460ff1660018111156106095761060861165b565b5b148061065f57506002828154811061062457610623611e3d565b5b9060005260206000209060070201600301546002838154811061064a57610649611e3d565b5b90600052602060002090600702016005015410155b61069e576040517f08c379a000000000000000000000000000000000000000000000000000000000815260040161069590611fb6565b60405180910390fd5b600282815481106106b2576106b1611e3d565b5b906000526020600020906007020160060160039054906101000a900460ff1615610711576040517f08c379a000000000000000000000000000000000000000000000000000000000815260040161070890612022565b60405180910390fd5b60016002838154811061072757610726611e3d565b5b906000526020600020906007020160060160036101000a81548160ff0219169083151502179055503373ffffffffffffffffffffffffffffffffffffffff166108fc6002848154811061077d5761077c611e3d565b5b9060005260206000209060070201600501549081150290604051600060405180830381858888f193505050501580156107ba573d6000803e3d6000fd5b505050565b6000602052816000526040600020602052806000526040600020600091509150505481565b60008411610827576040517f08c379a000000000000000000000000000000000000000000000000000000000815260040161081e9061208e565b60405180910390fd5b60006040518061014001604052808881526020018781526020013373ffffffffffffffffffffffffffffffffffffffff168152602001868152602001854261086f91906120dd565b81526020016000815260200184600781111561088e5761088d61165b565b5b81526020016001151581526020018360018111156108af576108ae61165b565b5b8152602001600015158152509050600281908060018154018082558091505060019003906000526020600020906007020160009091909190915060008201518160000190816108fe91906122bd565b50602082015181600101908161091491906122bd565b5060408201518160020160006101000a81548173ffffffffffffffffffffffffffffffffffffffff021916908373ffffffffffffffffffffffffffffffffffffffff160217905550606082015181600301556080820151816004015560a0820151816005015560c08201518160060160006101000a81548160ff021916908360078111156109a5576109a461165b565b5b021790555060e08201518160060160016101000a81548160ff0219169083151502179055506101008201518160060160026101000a81548160ff021916908360018111156109f6576109f561165b565b5b02179055506101208201518160060160036101000a81548160ff0219169083151502179055505050600160003373ffffffffffffffffffffffffffffffffffffffff1673ffffffffffffffffffffffffffffffffffffffff1681526020019081526020016000206001600280549050610a6f919061238f565b908060018154018082558091505060019003906000526020600020016000909190919091505550505050505050565b6060600160008373ffffffffffffffffffffffffffffffffffffffff1673ffffffffffffffffffffffffffffffffffffffff168152602001908152602001600020805480602002602001604051908101604052809291908181526020018280548015610b2957602002820191906000526020600020905b815481526020019060010190808311610b15575b50505050509050919050565b6002805490508110610b7c576040517f08c379a0000000000000000000000000000000000000000000000000000000008152600401610b739061240f565b60405180910390fd5b600060028281548110610b9257610b91611e3d565b5b906000526020600020906007020190508060060160019054906101000a900460ff16610bf3576040517f08c379a0000000000000000000000000000000000000000000000000000000008152600401610bea9061247b565b60405180910390fd5b8060040154421015610c3a576040517f08c379a0000000000000000000000000000000000000000000000000000000008152600401610c31906124e7565b60405180910390fd5b8060030154816005015410610cb9578060020160009054906101000a900473ffffffffffffffffffffffffffffffffffffffff1673ffffffffffffffffffffffffffffffffffffffff166108fc82600501549081150290604051600060405180830381858888f19350505050158015610cb7573d6000803e3d6000fd5b505b60008160060160016101000a81548160ff0219169083151502179055505050565b806002805490508110610d22576040517f08c379a0000000000000000000000000000000000000000000000000000000008152600401610d1990611e1d565b60405180910390fd5b600060028381548110610d3857610d37611e3d565b5b906000526020600020906007020190508060060160019054906101000a900460ff16610d99576040517f08c379a0000000000000000000000000000000000000000000000000000000008152600401610d9090612553565b60405180910390fd5b3373ffffffffffffffffffffffffffffffffffffffff168160020160009054906101000a900473ffffffffffffffffffffffffffffffffffffffff1673ffffffffffffffffffffffffffffffffffffffff1603610e2b576040517f08c379a0000000000000000000000000000000000000000000000000000000008152600401610e22906125bf565b60405180910390fd5b80600401544210610e71576040517f08c379a0000000000000000000000000000000000000000000000000000000008152600401610e689061262b565b60405180910390fd5b60003411610eb4576040517f08c379a0000000000000000000000000000000000000000000000000000000008152600401610eab906126bd565b60405180910390fd5b3460008085815260200190815260200160002060003373ffffffffffffffffffffffffffffffffffffffff1673ffffffffffffffffffffffffffffffffffffffff1681526020019081526020016000206000828254610f1391906120dd565b9250508190555034816005016000828254610f2e91906120dd565b92505081905550505050565b6060806000806000806000806002805490508910610f8d576040517f08c379a0000000000000000000000000000000000000000000000000000000008152600401610f849061240f565b60405180910390fd5b600060028a81548110610fa357610fa2611e3d565b5b9060005260206000209060070201905080600001816001018260020160009054906101000a900473ffffffffffffffffffffffffffffffffffffffff168360030154846004015485600501548660060160009054906101000a900460ff168760060160019054906101000a900460ff1687805461101f90611da0565b80601f016020809104026020016040519081016040528092919081815260200182805461104b90611da0565b80156110985780601f1061106d57610100808354040283529160200191611098565b820191906000526020600020905b81548152906001019060200180831161107b57829003601f168201915b505050505097508680546110ab90611da0565b80601f01602080910402602001604051908101604052809291908181526020018280546110d790611da0565b80156111245780601f106110f957610100808354040283529160200191611124565b820191906000526020600020905b81548152906001019060200180831161110757829003601f168201915b505050505096509850985098509850985098509850985050919395975091939597565b6060600060016007808111156111605761115f61165b565b5b61116a91906120dd565b67ffffffffffffffff81111561118357611182611870565b5b6040519080825280602002602001820160405280156111b657816020015b60608152602001906001900390816111a15790505b5090506040518060400160405280601181526020017f43524541544956455f50524f4a4543545300000000000000000000000000000081525081600060078111156112045761120361165b565b5b8151811061121557611214611e3d565b5b60200260200101819052506040518060400160405280601981526020017f544543484e4f4c4f47595f414e445f494e4e4f564154494f4e00000000000000815250816001600781111561126b5761126a61165b565b5b8151811061127c5761127b611e3d565b5b60200260200101819052506040518060400160405280601481526020017f464f4f445f414e445f4147524943554c5455524500000000000000000000000081525081600260078111156112d2576112d161165b565b5b815181106112e3576112e2611e3d565b5b60200260200101819052506040518060400160405280600d81526020017f534f4349414c5f4341555345530000000000000000000000000000000000000081525081600360078111156113395761133861165b565b5b8151811061134a57611349611e3d565b5b60200260200101819052506040518060400160405280600d81526020017f4556454e545f46554e44494e470000000000000000000000000000000000000081525081600460078111156113a05761139f61165b565b5b815181106113b1576113b0611e3d565b5b60200260200101819052506040518060400160405280600481526020017f524546490000000000000000000000000000000000000000000000000000000081525081600560078111156114075761140661165b565b5b8151811061141857611417611e3d565b5b60200260200101819052506040518060400160405280601081526020017f52454e455741424c455f454e4552475900000000000000000000000000000000815250816006600781111561146e5761146d61165b565b5b8151811061147f5761147e611e3d565b5b60200260200101819052506040518060400160405280600e81526020017f414e494d414c5f57454c46415245000000000000000000000000000000000000815250816007808111156114d4576114d361165b565b5b815181106114e5576114e4611e3d565b5b60200260200101819052508091505090565b6000600280549050905090565b6000604051905090565b600080fd5b600080fd5b6000819050919050565b61152b81611518565b811461153657600080fd5b50565b60008135905061154881611522565b92915050565b6000602082840312156115645761156361150e565b5b600061157284828501611539565b91505092915050565b600081519050919050565b600082825260208201905092915050565b60005b838110156115b557808201518184015260208101905061159a565b60008484015250505050565b6000601f19601f8301169050919050565b60006115dd8261157b565b6115e78185611586565b93506115f7818560208601611597565b611600816115c1565b840191505092915050565b600073ffffffffffffffffffffffffffffffffffffffff82169050919050565b60006116368261160b565b9050919050565b6116468161162b565b82525050565b61165581611518565b82525050565b7f4e487b7100000000000000000000000000000000000000000000000000000000600052602160045260246000fd5b6008811061169b5761169a61165b565b5b50565b60008190506116ac8261168a565b919050565b60006116bc8261169e565b9050919050565b6116cc816116b1565b82525050565b60008115159050919050565b6116e7816116d2565b82525050565b600281106116fe576116fd61165b565b5b50565b600081905061170f826116ed565b919050565b600061171f82611701565b9050919050565b61172f81611714565b82525050565b6000610140820190508181036000830152611750818d6115d2565b90508181036020830152611764818c6115d2565b9050611773604083018b61163d565b611780606083018a61164c565b61178d608083018961164c565b61179a60a083018861164c565b6117a760c08301876116c3565b6117b460e08301866116de565b6117c2610100830185611726565b6117d06101208301846116de565b9b9a5050505050505050505050565b6117e88161162b565b81146117f357600080fd5b50565b600081359050611805816117df565b92915050565b600080604083850312156118225761182161150e565b5b600061183085828601611539565b9250506020611841858286016117f6565b9150509250929050565b6000602082019050611860600083018461164c565b92915050565b600080fd5b600080fd5b7f4e487b7100000000000000000000000000000000000000000000000000000000600052604160045260246000fd5b6118a8826115c1565b810181811067ffffffffffffffff821117156118c7576118c6611870565b5b80604052505050565b60006118da611504565b90506118e6828261189f565b919050565b600067ffffffffffffffff82111561190657611905611870565b5b61190f826115c1565b9050602081019050919050565b82818337600083830152505050565b600061193e611939846118eb565b6118d0565b90508281526020810184848401111561195a5761195961186b565b5b61196584828561191c565b509392505050565b600082601f83011261198257611981611866565b5b813561199284826020860161192b565b91505092915050565b600881106119a857600080fd5b50565b6000813590506119ba8161199b565b92915050565b600281106119cd57600080fd5b50565b6000813590506119df816119c0565b92915050565b60008060008060008060c08789031215611a0257611a0161150e565b5b600087013567ffffffffffffffff811115611a2057611a1f611513565b5b611a2c89828a0161196d565b965050602087013567ffffffffffffffff811115611a4d57611a4c611513565b5b611a5989828a0161196d565b9550506040611a6a89828a01611539565b9450506060611a7b89828a01611539565b9350506080611a8c89828a016119ab565b92505060a0611a9d89828a016119d0565b9150509295509295509295565b600060208284031215611ac057611abf61150e565b5b6000611ace848285016117f6565b91505092915050565b600081519050919050565b600082825260208201905092915050565b6000819050602082019050919050565b611b0c81611518565b82525050565b6000611b1e8383611b03565b60208301905092915050565b6000602082019050919050565b6000611b4282611ad7565b611b4c8185611ae2565b9350611b5783611af3565b8060005b83811015611b88578151611b6f8882611b12565b9750611b7a83611b2a565b925050600181019050611b5b565b5085935050505092915050565b60006020820190508181036000830152611baf8184611b37565b905092915050565b6000610100820190508181036000830152611bd2818b6115d2565b90508181036020830152611be6818a6115d2565b9050611bf5604083018961163d565b611c02606083018861164c565b611c0f608083018761164c565b611c1c60a083018661164c565b611c2960c08301856116c3565b611c3660e08301846116de565b9998505050505050505050565b600081519050919050565b600082825260208201905092915050565b6000819050602082019050919050565b600082825260208201905092915050565b6000611c8b8261157b565b611c958185611c6f565b9350611ca5818560208601611597565b611cae816115c1565b840191505092915050565b6000611cc58383611c80565b905092915050565b6000602082019050919050565b6000611ce582611c43565b611cef8185611c4e565b935083602082028501611d0185611c5f565b8060005b85811015611d3d5784840389528151611d1e8582611cb9565b9450611d2983611ccd565b925060208a01995050600181019050611d05565b50829750879550505050505092915050565b60006020820190508181036000830152611d698184611cda565b905092915050565b7f4e487b7100000000000000000000000000000000000000000000000000000000600052602260045260246000fd5b60006002820490506001821680611db857607f821691505b602082108103611dcb57611dca611d71565b5b50919050565b7f496e76616c69642050726f6a6563742049640000000000000000000000000000600082015250565b6000611e07601283611586565b9150611e1282611dd1565b602082019050919050565b60006020820190508181036000830152611e3681611dfa565b9050919050565b7f4e487b7100000000000000000000000000000000000000000000000000000000600052603260045260246000fd5b7f596f7520617265206e6f742050726f6a656374204f776e657200000000000000600082015250565b6000611ea2601983611586565b9150611ead82611e6c565b602082019050919050565b60006020820190508181036000830152611ed181611e95565b9050919050565b7f43616d706169676e2046756e64696e672054696d65204e6f742045787069726560008201527f6400000000000000000000000000000000000000000000000000000000000000602082015250565b6000611f34602183611586565b9150611f3f82611ed8565b604082019050919050565b60006020820190508181036000830152611f6381611f27565b9050919050565b7f46756e64696e6720676f616c206e6f7420726561636865640000000000000000600082015250565b6000611fa0601883611586565b9150611fab82611f6a565b602082019050919050565b60006020820190508181036000830152611fcf81611f93565b9050919050565b7f416c726561647920636c61696d6564207261697365642066756e647300000000600082015250565b600061200c601c83611586565b915061201782611fd6565b602082019050919050565b6000602082019050818103600083015261203b81611fff565b9050919050565b7f476f616c206d7573742062652067726561746572207468616e20300000000000600082015250565b6000612078601b83611586565b915061208382612042565b602082019050919050565b600060208201905081810360008301526120a78161206b565b9050919050565b7f4e487b7100000000000000000000000000000000000000000000000000000000600052601160045260246000fd5b60006120e882611518565b91506120f383611518565b925082820190508082111561210b5761210a6120ae565b5b92915050565b60008190508160005260206000209050919050565b60006020601f8301049050919050565b600082821b905092915050565b6000600883026121737fffffffffffffffffffffffffffffffffffffffffffffffffffffffffffffffff82612136565b61217d8683612136565b95508019841693508086168417925050509392505050565b6000819050919050565b60006121ba6121b56121b084611518565b612195565b611518565b9050919050565b6000819050919050565b6121d48361219f565b6121e86121e0826121c1565b848454612143565b825550505050565b600090565b6121fd6121f0565b6122088184846121cb565b505050565b5b8181101561222c576122216000826121f5565b60018101905061220e565b5050565b601f8211156122715761224281612111565b61224b84612126565b8101602085101561225a578190505b61226e61226685612126565b83018261220d565b50505b505050565b600082821c905092915050565b600061229460001984600802612276565b1980831691505092915050565b60006122ad8383612283565b9150826002028217905092915050565b6122c68261157b565b67ffffffffffffffff8111156122df576122de611870565b5b6122e98254611da0565b6122f4828285612230565b600060209050601f8311600181146123275760008415612315578287015190505b61231f85826122a1565b865550612387565b601f19841661233586612111565b60005b8281101561235d57848901518255600182019150602085019450602081019050612338565b8683101561237a5784890151612376601f891682612283565b8355505b6001600288020188555050505b505050505050565b600061239a82611518565b91506123a583611518565b92508282039050818111156123bd576123bc6120ae565b5b92915050565b7f496e76616c69642063616d706169676e20696e64657800000000000000000000600082015250565b60006123f9601683611586565b9150612404826123c3565b602082019050919050565b60006020820190508181036000830152612428816123ec565b9050919050565b7f43616d706169676e20697320616c726561647920636c6f736564000000000000600082015250565b6000612465601a83611586565b91506124708261242f565b602082019050919050565b6000602082019050818103600083015261249481612458565b9050919050565b7f43616d706169676e20686173206e6f7420656e64656420796574000000000000600082015250565b60006124d1601a83611586565b91506124dc8261249b565b602082019050919050565b60006020820190508181036000830152612500816124c4565b9050919050565b7f43616d706169676e20697320636c6f7365640000000000000000000000000000600082015250565b600061253d601283611586565b915061254882612507565b602082019050919050565b6000602082019050818103600083015261256c81612530565b9050919050565b7f596f7520617265207468652043616d706169676e206f776e6572000000000000600082015250565b60006125a9601a83611586565b91506125b482612573565b602082019050919050565b600060208201905081810360008301526125d88161259c565b9050919050565b7f43616d706169676e2068617320656e6465640000000000000000000000000000600082015250565b6000612615601283611586565b9150612620826125df565b602082019050919050565b6000602082019050818103600083015261264481612608565b9050919050565b7f436f6e747269627574696f6e206d75737420626520677265617465722074686160008201527f6e20300000000000000000000000000000000000000000000000000000000000602082015250565b60006126a7602383611586565b91506126b28261264b565b604082019050919050565b600060208201905081810360008301526126d68161269a565b905091905056fea264697066735822122002e7ad44c27bd4d840ea106e84d19d2fa6d4151f12237b5d429a4cdaf7f8497364736f6c63430008130033",
  "linkReferences": {},
  "deployedLinkReferences": {}
}